{
  "contractName": "ERC721Enumerable",
  "abi": [
    {
      "inputs": [],
      "stateMutability": "nonpayable",
      "type": "constructor"
    },
    {
      "anonymous": false,
      "inputs": [
        {
          "indexed": true,
          "internalType": "address",
          "name": "_owner",
          "type": "address"
        },
        {
          "indexed": true,
          "internalType": "address",
          "name": "_approved",
          "type": "address"
        },
        {
          "indexed": true,
          "internalType": "uint256",
          "name": "_tokenId",
          "type": "uint256"
        }
      ],
      "name": "Approval",
      "type": "event"
    },
    {
      "anonymous": false,
      "inputs": [
        {
          "indexed": true,
          "internalType": "address",
          "name": "_from",
          "type": "address"
        },
        {
          "indexed": true,
          "internalType": "address",
          "name": "_to",
          "type": "address"
        },
        {
          "indexed": true,
          "internalType": "uint256",
          "name": "_tokenId",
          "type": "uint256"
        }
      ],
      "name": "Transfer",
      "type": "event"
    },
    {
      "inputs": [
        {
          "internalType": "address",
          "name": "_owner",
          "type": "address"
        }
      ],
      "name": "balanceOf",
      "outputs": [
        {
          "internalType": "uint256",
          "name": "",
          "type": "uint256"
        }
      ],
      "stateMutability": "view",
      "type": "function"
    },
    {
      "inputs": [
        {
          "internalType": "uint256",
          "name": "_tokenId",
          "type": "uint256"
        }
      ],
      "name": "ownerOf",
      "outputs": [
        {
          "internalType": "address",
          "name": "",
          "type": "address"
        }
      ],
      "stateMutability": "view",
      "type": "function"
    },
    {
      "inputs": [
        {
          "internalType": "bytes4",
          "name": "interfaceID",
          "type": "bytes4"
        }
      ],
      "name": "supportsInterface",
      "outputs": [
        {
          "internalType": "bool",
          "name": "",
          "type": "bool"
        }
      ],
      "stateMutability": "view",
      "type": "function"
    },
    {
      "inputs": [
        {
          "internalType": "address",
          "name": "_from",
          "type": "address"
        },
        {
          "internalType": "address",
          "name": "_to",
          "type": "address"
        },
        {
          "internalType": "uint256",
          "name": "_tokenId",
          "type": "uint256"
        }
      ],
      "name": "transferFrom",
      "outputs": [],
      "stateMutability": "nonpayable",
      "type": "function"
    },
    {
      "inputs": [
        {
          "internalType": "uint256",
          "name": "_index",
          "type": "uint256"
        }
      ],
      "name": "tokenByIndex",
      "outputs": [
        {
          "internalType": "uint256",
          "name": "",
          "type": "uint256"
        }
      ],
      "stateMutability": "view",
      "type": "function"
    },
    {
      "inputs": [
        {
          "internalType": "address",
          "name": "_owner",
          "type": "address"
        },
        {
          "internalType": "uint256",
          "name": "_index",
          "type": "uint256"
        }
      ],
      "name": "tokenOfOwnerByIndex",
      "outputs": [
        {
          "internalType": "uint256",
          "name": "",
          "type": "uint256"
        }
      ],
      "stateMutability": "view",
      "type": "function"
    },
    {
      "inputs": [],
      "name": "totalSupply",
      "outputs": [
        {
          "internalType": "uint256",
          "name": "",
          "type": "uint256"
        }
      ],
      "stateMutability": "view",
      "type": "function"
    }
  ],
  "bytecode": "0x608060405234801561001057600080fd5b506100437f01ffc9a7a5cef8baa21ed3c5c0d7e23accb804b619e9333b597f47a0d84076e26401000000006100ac810204565b6100757f92d8a794d910422f7549620ed7a8f75c2c42d18032da05c61ed89586344e965e6401000000006100ac810204565b6100a77f2aa3f4710f58b303977da296b62cadae054c8971d883298d8ed6c6c0565c13c16401000000006100ac810204565b610179565b7fffffffff00000000000000000000000000000000000000000000000000000000808216141561013c576040517f08c379a000000000000000000000000000000000000000000000000000000000815260206004820152601a60248201527f4572726f723a20496e76616c696420696e746572666163654964000000000000604482015260640160405180910390fd5b7fffffffff00000000000000000000000000000000000000000000000000000000166000908152602081905260409020805460ff19166001179055565b610706806101886000396000f3fe608060405234801561001057600080fd5b506004361061009a576000357c0100000000000000000000000000000000000000000000000000000000900480632f745c59116100785780632f745c591461011d5780634f6ccce7146101305780636352211e1461014357806370a082311461016e57600080fd5b806301ffc9a71461009f57806318160ddd146100f657806323b872dd14610108575b600080fd5b6100e16100ad366004610547565b7bffffffffffffffffffffffffffffffffffffffffffffffffffffffff191660009081526020819052604090205460ff1690565b60405190151581526020015b60405180910390f35b6004545b6040519081526020016100ed565b61011b6101163660046105a9565b610181565b005b6100fa61012b3660046105e5565b610191565b6100fa61013e36600461060f565b610230565b61015661015136600461060f565b6102b2565b604051600160a060020a0390911681526020016100ed565b6100fa61017c366004610628565b610320565b61018c838383610397565b505050565b600061019c83610320565b8211156101f35760405160e560020a62461bcd02815260206004820152601d60248201527f6f776e657220696e646578206973206f7574206f6620626f756e64732100000060448201526064015b60405180910390fd5b600160a060020a038316600090815260066020526040902080548390811061021d5761021d610643565b9060005260206000200154905092915050565b600061023b60045490565b82111561028d5760405160e560020a62461bcd02815260206004820152601e60248201527f676c6f62616c20696e646578206973206f7574206f6620626f756e647321000060448201526064016101ea565b600482815481106102a0576102a0610643565b90600052602060002001549050919050565b600081815260016020526040812054600160a060020a03168061031a5760405160e560020a62461bcd02815260206004820152601d60248201527f6f776e657220616464726573732073686f756c64206e6f74206265203000000060448201526064016101ea565b92915050565b6000600160a060020a03821661037b5760405160e560020a62461bcd02815260206004820152601e60248201527f5f6f776e657220616464726573732073686f756c64206e6f742062652030000060448201526064016101ea565b50600160a060020a031660009081526002602052604090205490565b600160a060020a0382166103f05760405160e560020a62461bcd02815260206004820152601f60248201527f5472616e7366657272696e6720746f2061207a65726f20616464726573732e0060448201526064016101ea565b82600160a060020a0316610403826102b2565b600160a060020a0316146104825760405160e560020a62461bcd02815260206004820152603760248201527f547279696e6720746f207472616e73666572206120746f6b656e20746861742060448201527f746865206164647265737320646f65736e2774206f776e00000000000000000060648201526084016101ea565b600160a060020a03831660009081526002602052604081208054600192906104ab9084906106a1565b9091555050600160a060020a03821660009081526002602052604081208054600192906104d99084906106b8565b9091555050600081815260016020526040808220805473ffffffffffffffffffffffffffffffffffffffff1916600160a060020a0386811691821790925591518493918716917fddf252ad1be2c89b69c2b068fc378daa952ba7f163c4a11628f55a4df523b3ef91a4505050565b60006020828403121561055957600080fd5b81357bffffffffffffffffffffffffffffffffffffffffffffffffffffffff198116811461058657600080fd5b9392505050565b8035600160a060020a03811681146105a457600080fd5b919050565b6000806000606084860312156105be57600080fd5b6105c78461058d565b92506105d56020850161058d565b9150604084013590509250925092565b600080604083850312156105f857600080fd5b6106018361058d565b946020939093013593505050565b60006020828403121561062157600080fd5b5035919050565b60006020828403121561063a57600080fd5b6105868261058d565b7f4e487b7100000000000000000000000000000000000000000000000000000000600052603260045260246000fd5b7f4e487b7100000000000000000000000000000000000000000000000000000000600052601160045260246000fd5b6000828210156106b3576106b3610672565b500390565b600082198211156106cb576106cb610672565b50019056fea2646970667358221220cfdb72cbe6f7de6eafb55db981ff652f6525684316b2bdbee8ef477a9ee8827e64736f6c634300080b0033",
  "immutableReferences": {},
  "source": "// SPDX-License-Identifier: MIT\r\npragma solidity ^0.8.11;\r\n\r\nimport './ERC721.sol'; // in order to get access to the _mint and other functions\r\nimport './interfaces/IERC721Enumerable.sol';\r\n\r\n\r\ncontract ERC721Enumerable is IERC721Enumerable, ERC721 {\r\n\r\n    uint256[] private _allTokens;\r\n\r\n    // mapping from tokenId to position (index) in _allTokens array\r\n    mapping(uint256 => uint256) private _allTokensIndex;\r\n    // mapping from owner address to list (array) of all owned tokenIds\r\n    mapping(address => uint256[]) private _ownedTokens;\r\n    // mapping from tokenId to index of the owner tokens list\r\n    mapping(uint256 => uint256) private _owenedTokensIndex;\r\n\r\n    // signature for totalSupply(), tokenByIndex(), tokenOfOwnerByIndex()\r\n    constructor () {\r\n        _registerInterface(bytes4(\r\n            keccak256('totalSupply(bytes4)')^\r\n            keccak256('tokenByIndex(bytes4)')^\r\n            keccak256('tokenOfOwnerByIndex(bytes4)')\r\n        ));\r\n    }\r\n\r\n    /// @notice Enumerate valid NFTs\r\n    /// @dev Throws if `_index` >= `totalSupply()`.\r\n    /// @param _index A counter less than `totalSupply()`\r\n    /// @return The token identifier for the `_index`th NFT,\r\n    ///  (sort order not specified)\r\n    function tokenByIndex(uint256 _index) public view override returns (uint256){\r\n        require(_index <= totalSupply(), 'global index is out of bounds!');\r\n        return _allTokens[_index];\r\n    }\r\n\r\n    /// @notice Enumerate NFTs assigned to an owner\r\n    /// @dev Throws if `_index` >= `balanceOf(_owner)` or if\r\n    ///  `_owner` is the zero address, representing invalid NFTs.\r\n    /// @param _owner An address where we are interested in NFTs owned by them\r\n    /// @param _index A counter less than `balanceOf(_owner)`\r\n    /// @return The token identifier for the `_index`th NFT assigned to `_owner`,\r\n    ///   (sort order not specified)\r\n    function tokenOfOwnerByIndex(address _owner, uint256 _index) public view override returns (uint256){\r\n        require(_index <= balanceOf(_owner), 'owner index is out of bounds!');\r\n        return _ownedTokens[_owner][_index];\r\n    }\r\n\r\n    function _mint(address to, uint256 tokenId) internal override(ERC721){\r\n        // access the _mint() function from ERC721.sol contract\r\n        super._mint(to, tokenId);\r\n\r\n        _addTokensToAllTokenEnumeration(tokenId);\r\n        _addTokensToOwnerEnumeration(to, tokenId);\r\n    }\r\n\r\n    function _addTokensToAllTokenEnumeration(uint256 tokenId) private{\r\n        _allTokensIndex[tokenId] = _allTokens.length;\r\n        _allTokens.push(tokenId);\r\n    }\r\n\r\n    function _addTokensToOwnerEnumeration(address to, uint256 tokenId) private{\r\n        // 1. add address and token id to the _ownedTokens\r\n        _ownedTokens[to].push(tokenId);\r\n        // 2. ownedTokensIndex token id set to address of ownedTokens position\r\n        _owenedTokensIndex[tokenId] = _ownedTokens[to].length;\r\n        // 3. execute this function with minting\r\n    }\r\n\r\n    /// @notice Count NFTs tracked by this contract\r\n    /// @return A count of valid NFTs tracked by this contract, where each one of\r\n    ///  them has an assigned and queryable owner not equal to the zero address\r\n    function totalSupply() public view override returns (uint256){\r\n        return _allTokens.length;\r\n    }\r\n}",
  "sourcePath": "F:\\Crypto Courses\\The Complete NFT Web Development Course - Zero To Expert\\Project NFT\\NFT-Dev-0-to-Hero\\src\\contracts\\ERC721Enumerable.sol",
  "compiler": {
    "name": "solc",
    "version": "0.8.11+commit.d7f03943.Emscripten.clang"
  },
  "schemaVersion": "3.4.5",
  "updatedAt": "2022-03-07T18:09:48.718Z",
  "devdoc": {
    "kind": "dev",
    "methods": {
      "balanceOf(address)": {
        "details": "NFTs assigned to the zero address are considered invalid, and this  function throws for queries about the zero address.",
        "params": {
          "_owner": "An address for whom to query the balance"
        },
        "returns": {
          "_0": "The number of NFTs owned by `_owner`, possibly zero"
        }
      },
      "ownerOf(uint256)": {
        "details": "NFTs assigned to zero address are considered invalid, and queries  about them do throw.",
        "params": {
          "_tokenId": "The identifier for an NFT"
        },
        "returns": {
          "_0": "The address of the owner of the NFT"
        }
      },
      "supportsInterface(bytes4)": {
        "details": "Interface identification is specified in ERC-165. This function  uses less than 30,000 gas.",
        "params": {
          "interfaceID": "The interface identifier, as specified in ERC-165"
        },
        "returns": {
          "_0": "`true` if the contract implements `interfaceID` and  `interfaceID` is not 0xffffffff, `false` otherwise"
        }
      },
      "tokenByIndex(uint256)": {
        "details": "Throws if `_index` >= `totalSupply()`.",
        "params": {
          "_index": "A counter less than `totalSupply()`"
        },
        "returns": {
          "_0": "The token identifier for the `_index`th NFT,  (sort order not specified)"
        }
      },
      "tokenOfOwnerByIndex(address,uint256)": {
        "details": "Throws if `_index` >= `balanceOf(_owner)` or if  `_owner` is the zero address, representing invalid NFTs.",
        "params": {
          "_index": "A counter less than `balanceOf(_owner)`",
          "_owner": "An address where we are interested in NFTs owned by them"
        },
        "returns": {
          "_0": "The token identifier for the `_index`th NFT assigned to `_owner`,   (sort order not specified)"
        }
      },
      "totalSupply()": {
        "returns": {
          "_0": "A count of valid NFTs tracked by this contract, where each one of  them has an assigned and queryable owner not equal to the zero address"
        }
      },
      "transferFrom(address,address,uint256)": {
        "details": "Throws unless `msg.sender` is the current owner, an authorized  operator, or the approved address for this NFT. Throws if `_from` is  not the current owner. Throws if `_to` is the zero address. Throws if  `_tokenId` is not a valid NFT.",
        "params": {
          "_from": "The current owner of the NFT",
          "_to": "The new owner",
          "_tokenId": "The NFT to transfer"
        }
      }
    },
    "version": 1
  },
  "userdoc": {
    "kind": "user",
    "methods": {
      "balanceOf(address)": {
        "notice": "Count all NFTs assigned to an owner"
      },
      "ownerOf(uint256)": {
        "notice": "Find the owner of an NFT"
      },
      "supportsInterface(bytes4)": {
        "notice": "Query if a contract implements an interface"
      },
      "tokenByIndex(uint256)": {
        "notice": "Enumerate valid NFTs"
      },
      "tokenOfOwnerByIndex(address,uint256)": {
        "notice": "Enumerate NFTs assigned to an owner"
      },
      "totalSupply()": {
        "notice": "Count NFTs tracked by this contract"
      },
      "transferFrom(address,address,uint256)": {
        "notice": "Transfer ownership of an NFT -- THE CALLER IS RESPONSIBLE  TO CONFIRM THAT `_to` IS CAPABLE OF RECEIVING NFTS OR ELSE  THEY MAY BE PERMANENTLY LOST"
      }
    },
    "version": 1
  }
}