{
  "contractName": "ERC721",
  "abi": [
    {
      "anonymous": false,
      "inputs": [
        {
          "indexed": true,
          "internalType": "address",
          "name": "from",
          "type": "address"
        },
        {
          "indexed": true,
          "internalType": "address",
          "name": "to",
          "type": "address"
        },
        {
          "indexed": true,
          "internalType": "uint256",
          "name": "tokenId",
          "type": "uint256"
        }
      ],
      "name": "Transfer",
      "type": "event"
    },
    {
      "inputs": [
        {
          "internalType": "address",
          "name": "_owner",
          "type": "address"
        }
      ],
      "name": "balanceOf",
      "outputs": [
        {
          "internalType": "uint256",
          "name": "",
          "type": "uint256"
        }
      ],
      "stateMutability": "view",
      "type": "function"
    },
    {
      "inputs": [
        {
          "internalType": "uint256",
          "name": "_tokenId",
          "type": "uint256"
        }
      ],
      "name": "ownerOf",
      "outputs": [
        {
          "internalType": "address",
          "name": "",
          "type": "address"
        }
      ],
      "stateMutability": "view",
      "type": "function"
    }
  ],
  "bytecode": "0x608060405234801561001057600080fd5b506102a2806100206000396000f3fe608060405234801561001057600080fd5b5060043610610052577c010000000000000000000000000000000000000000000000000000000060003504636352211e811461005757806370a0823114610094575b600080fd5b61006a610065366004610216565b6100b5565b60405173ffffffffffffffffffffffffffffffffffffffff90911681526020015b60405180910390f35b6100a76100a236600461022f565b61016e565b60405190815260200161008b565b60008181526020819052604081205473ffffffffffffffffffffffffffffffffffffffff16610145576040517f08c379a000000000000000000000000000000000000000000000000000000000815260206004820152601d60248201527f6f776e657220616464726573732073686f756c64206e6f74206265203000000060448201526064015b60405180910390fd5b5060009081526020819052604090205473ffffffffffffffffffffffffffffffffffffffff1690565b600073ffffffffffffffffffffffffffffffffffffffff82166101ed576040517f08c379a000000000000000000000000000000000000000000000000000000000815260206004820152601e60248201527f5f6f776e657220616464726573732073686f756c64206e6f7420626520300000604482015260640161013c565b5073ffffffffffffffffffffffffffffffffffffffff1660009081526001602052604090205490565b60006020828403121561022857600080fd5b5035919050565b60006020828403121561024157600080fd5b813573ffffffffffffffffffffffffffffffffffffffff8116811461026557600080fd5b939250505056fea2646970667358221220bb601fda5ac96868ae9055107b0cef4cc4d849f22c50a96d1ec9fdb0295f6c6164736f6c634300080b0033",
  "immutableReferences": {},
  "source": "// SPDX-License-Identifier: MIT\r\npragma solidity ^0.8.11;\r\n\r\n/*\r\nBuilding up the minting function\r\n    a. NFT point to an address,\r\n    b. Keep track of the token ids,\r\n    c. Keep track of token owner address to token id,\r\n    d. Keep track of how many tokens an owner has,\r\n    e. Create an event that emit a transfer log:\r\n        - contract address,\r\n        - token id,\r\n        - owener,\r\n        - where is being minted to\r\n        - etc\r\n*/\r\n\r\ncontract ERC721 {\r\n\r\n    // address from - the contract address\r\n    // address to - the owner address\r\n    event Transfer(\r\n        address indexed from, \r\n        address indexed to, \r\n        uint256 indexed tokenId);\r\n\r\n    // mapping in solidity creates a hash table of key pair values\r\n    // mapping from token id to the owner\r\n    mapping(uint256 => address) private _tokenOwner;\r\n\r\n    // mappint from owner to number of owned tokens\r\n    mapping(address => uint256) private _OwnedTokensCount;\r\n\r\n    /// @notice Count all NFTs assigned to an owner\r\n    /// @dev NFTs assigned to the zero address are considered invalid, and this\r\n    ///  function throws for queries about the zero address.\r\n    /// @param _owner An address for whom to query the balance\r\n    /// @return The number of NFTs owned by `_owner`, possibly zero\r\n    function balanceOf(address _owner) external view returns (uint256){\r\n        require(_owner != address(0), \"_owner address should not be 0\");\r\n        return _OwnedTokensCount[_owner];\r\n    }\r\n\r\n    /// @notice Find the owner of an NFT\r\n    /// @dev NFTs assigned to zero address are considered invalid, and queries\r\n    ///  about them do throw.\r\n    /// @param _tokenId The identifier for an NFT\r\n    /// @return The address of the owner of the NFT\r\n    function ownerOf(uint256 _tokenId) external view returns (address){\r\n        require(_tokenOwner[_tokenId] != address(0), \"owner address should not be 0\");\r\n        return _tokenOwner[_tokenId];\r\n    }\r\n\r\n    \r\n\r\n    function _exists(uint256 tokenId) internal view returns(bool){\r\n        // setting the address of the nft owner to a variable\r\n        address owner = _tokenOwner[tokenId];\r\n        // return truthiness that address is not zero;\r\n        // return truth if the address is not zero, so the token exists\r\n        return owner != address(0);\r\n    }\r\n\r\n    function _mint(address to, uint256 tokenId) internal {\r\n        // require that the address is not zero (it is a valid address)\r\n        require(to != address(0), 'ERC721: minting to a zero address');\r\n        // require that the tokenId doesn't exist (was not minted previously)\r\n        require(!_exists(tokenId), 'ERC721: token already minted (exists)');\r\n        // we are adding a new address to the tokenId for minting\r\n        _tokenOwner[tokenId] = to;\r\n        // we increase the counter of Owner address with one unit (total minted tokens)\r\n        _OwnedTokensCount[to] += 1;\r\n\r\n        // for the moment we keept the contract address to zero\r\n        emit Transfer(address(0), to, tokenId);\r\n    }\r\n\r\n}",
  "sourcePath": "F:\\Crypto Courses\\The Complete NFT Web Development Course - Zero To Expert\\Project NFT\\nft-marketplace-starter-kit\\src\\contracts\\ERC721.sol",
  "compiler": {
    "name": "solc",
    "version": "0.8.11+commit.d7f03943.Emscripten.clang"
  },
  "schemaVersion": "3.4.5",
  "updatedAt": "2022-02-22T18:17:16.698Z",
  "devdoc": {
    "kind": "dev",
    "methods": {
      "balanceOf(address)": {
        "details": "NFTs assigned to the zero address are considered invalid, and this  function throws for queries about the zero address.",
        "params": {
          "_owner": "An address for whom to query the balance"
        },
        "returns": {
          "_0": "The number of NFTs owned by `_owner`, possibly zero"
        }
      },
      "ownerOf(uint256)": {
        "details": "NFTs assigned to zero address are considered invalid, and queries  about them do throw.",
        "params": {
          "_tokenId": "The identifier for an NFT"
        },
        "returns": {
          "_0": "The address of the owner of the NFT"
        }
      }
    },
    "version": 1
  },
  "userdoc": {
    "kind": "user",
    "methods": {
      "balanceOf(address)": {
        "notice": "Count all NFTs assigned to an owner"
      },
      "ownerOf(uint256)": {
        "notice": "Find the owner of an NFT"
      }
    },
    "version": 1
  }
}