{
  "contractName": "ERC721Connector",
  "abi": [
    {
      "inputs": [
        {
          "internalType": "string",
          "name": "name",
          "type": "string"
        },
        {
          "internalType": "string",
          "name": "symbol",
          "type": "string"
        }
      ],
      "stateMutability": "nonpayable",
      "type": "constructor"
    },
    {
      "anonymous": false,
      "inputs": [
        {
          "indexed": true,
          "internalType": "address",
          "name": "_owner",
          "type": "address"
        },
        {
          "indexed": true,
          "internalType": "address",
          "name": "_approved",
          "type": "address"
        },
        {
          "indexed": true,
          "internalType": "uint256",
          "name": "_tokenId",
          "type": "uint256"
        }
      ],
      "name": "Approval",
      "type": "event"
    },
    {
      "anonymous": false,
      "inputs": [
        {
          "indexed": true,
          "internalType": "address",
          "name": "_from",
          "type": "address"
        },
        {
          "indexed": true,
          "internalType": "address",
          "name": "_to",
          "type": "address"
        },
        {
          "indexed": true,
          "internalType": "uint256",
          "name": "_tokenId",
          "type": "uint256"
        }
      ],
      "name": "Transfer",
      "type": "event"
    },
    {
      "inputs": [
        {
          "internalType": "address",
          "name": "_owner",
          "type": "address"
        }
      ],
      "name": "balanceOf",
      "outputs": [
        {
          "internalType": "uint256",
          "name": "",
          "type": "uint256"
        }
      ],
      "stateMutability": "view",
      "type": "function"
    },
    {
      "inputs": [],
      "name": "name",
      "outputs": [
        {
          "internalType": "string",
          "name": "",
          "type": "string"
        }
      ],
      "stateMutability": "view",
      "type": "function"
    },
    {
      "inputs": [
        {
          "internalType": "uint256",
          "name": "_tokenId",
          "type": "uint256"
        }
      ],
      "name": "ownerOf",
      "outputs": [
        {
          "internalType": "address",
          "name": "",
          "type": "address"
        }
      ],
      "stateMutability": "view",
      "type": "function"
    },
    {
      "inputs": [
        {
          "internalType": "bytes4",
          "name": "interfaceID",
          "type": "bytes4"
        }
      ],
      "name": "supportsInterface",
      "outputs": [
        {
          "internalType": "bool",
          "name": "",
          "type": "bool"
        }
      ],
      "stateMutability": "view",
      "type": "function"
    },
    {
      "inputs": [],
      "name": "symbol",
      "outputs": [
        {
          "internalType": "string",
          "name": "",
          "type": "string"
        }
      ],
      "stateMutability": "view",
      "type": "function"
    },
    {
      "inputs": [
        {
          "internalType": "uint256",
          "name": "_index",
          "type": "uint256"
        }
      ],
      "name": "tokenByIndex",
      "outputs": [
        {
          "internalType": "uint256",
          "name": "",
          "type": "uint256"
        }
      ],
      "stateMutability": "view",
      "type": "function"
    },
    {
      "inputs": [
        {
          "internalType": "address",
          "name": "_owner",
          "type": "address"
        },
        {
          "internalType": "uint256",
          "name": "_index",
          "type": "uint256"
        }
      ],
      "name": "tokenOfOwnerByIndex",
      "outputs": [
        {
          "internalType": "uint256",
          "name": "",
          "type": "uint256"
        }
      ],
      "stateMutability": "view",
      "type": "function"
    },
    {
      "inputs": [],
      "name": "totalSupply",
      "outputs": [
        {
          "internalType": "uint256",
          "name": "",
          "type": "uint256"
        }
      ],
      "stateMutability": "view",
      "type": "function"
    },
    {
      "inputs": [
        {
          "internalType": "address",
          "name": "_from",
          "type": "address"
        },
        {
          "internalType": "address",
          "name": "_to",
          "type": "address"
        },
        {
          "internalType": "uint256",
          "name": "_tokenId",
          "type": "uint256"
        }
      ],
      "name": "transferFrom",
      "outputs": [],
      "stateMutability": "nonpayable",
      "type": "function"
    }
  ],
  "bytecode": "0x60806040523480156200001157600080fd5b5060405162000ceb38038062000ceb833981016040819052620000349162000398565b81816200006a7f01ffc9a7a5cef8baa21ed3c5c0d7e23accb804b619e9333b597f47a0d84076e26401000000006200013e810204565b6200009e7f6c5b7360b116f8fd1d2a1ccb905de5c6a9e91e31b88b8db3cd997e184f357e9f6401000000006200013e810204565b8151620000b39060019060208501906200020c565b508051620000c99060029060208401906200020c565b506200010291507f92d8a794d910422f7549620ed7a8f75c2c42d18032da05c61ed89586344e965e90506401000000006200013e810204565b620001367f2aa3f4710f58b303977da296b62cadae054c8971d883298d8ed6c6c0565c13c16401000000006200013e810204565b505062000458565b7fffffffff000000000000000000000000000000000000000000000000000000008082161415620001cf576040517f08c379a000000000000000000000000000000000000000000000000000000000815260206004820152601a60248201527f4572726f723a20496e76616c696420696e746572666163654964000000000000604482015260640160405180910390fd5b7fffffffff00000000000000000000000000000000000000000000000000000000166000908152602081905260409020805460ff19166001179055565b8280546200021a9062000402565b90600052602060002090601f0160209004810192826200023e576000855562000289565b82601f106200025957805160ff191683800117855562000289565b8280016001018555821562000289579182015b82811115620002895782518255916020019190600101906200026c565b50620002979291506200029b565b5090565b5b808211156200029757600081556001016200029c565b7f4e487b7100000000000000000000000000000000000000000000000000000000600052604160045260246000fd5b600082601f830112620002f357600080fd5b81516001604060020a0380821115620003105762000310620002b2565b604051601f8301601f19908116603f011681019082821181831017156200033b576200033b620002b2565b816040528381526020925086838588010111156200035857600080fd5b600091505b838210156200037c57858201830151818301840152908201906200035d565b838211156200038e5760008385830101525b9695505050505050565b60008060408385031215620003ac57600080fd5b82516001604060020a0380821115620003c457600080fd5b620003d286838701620002e1565b93506020850151915080821115620003e957600080fd5b50620003f885828601620002e1565b9150509250929050565b6002810460018216806200041757607f821691505b6020821081141562000452577f4e487b7100000000000000000000000000000000000000000000000000000000600052602260045260246000fd5b50919050565b61088380620004686000396000f3fe608060405234801561001057600080fd5b50600436106100b0576000357c0100000000000000000000000000000000000000000000000000000000900480632f745c59116100835780632f745c59146101485780634f6ccce71461015b5780636352211e1461016e57806370a082311461019957806395d89b41146101ac57600080fd5b806301ffc9a7146100b557806306fdde031461010c57806318160ddd1461012157806323b872dd14610133575b600080fd5b6100f76100c336600461061b565b7bffffffffffffffffffffffffffffffffffffffffffffffffffffffff191660009081526020819052604090205460ff1690565b60405190151581526020015b60405180910390f35b6101146101b4565b6040516101039190610661565b6006545b604051908152602001610103565b6101466101413660046106d2565b610246565b005b61012561015636600461070e565b610256565b610125610169366004610738565b6102f5565b61018161017c366004610738565b610377565b604051600160a060020a039091168152602001610103565b6101256101a7366004610751565b6103e5565b61011461045c565b6060600180546101c39061076c565b80601f01602080910402602001604051908101604052809291908181526020018280546101ef9061076c565b801561023c5780601f106102115761010080835404028352916020019161023c565b820191906000526020600020905b81548152906001019060200180831161021f57829003601f168201915b5050505050905090565b61025183838361046b565b505050565b6000610261836103e5565b8211156102b85760405160e560020a62461bcd02815260206004820152601d60248201527f6f776e657220696e646578206973206f7574206f6620626f756e64732100000060448201526064015b60405180910390fd5b600160a060020a03831660009081526008602052604090208054839081106102e2576102e26107c0565b9060005260206000200154905092915050565b600061030060065490565b8211156103525760405160e560020a62461bcd02815260206004820152601e60248201527f676c6f62616c20696e646578206973206f7574206f6620626f756e647321000060448201526064016102af565b60068281548110610365576103656107c0565b90600052602060002001549050919050565b600081815260036020526040812054600160a060020a0316806103df5760405160e560020a62461bcd02815260206004820152601d60248201527f6f776e657220616464726573732073686f756c64206e6f74206265203000000060448201526064016102af565b92915050565b6000600160a060020a0382166104405760405160e560020a62461bcd02815260206004820152601e60248201527f5f6f776e657220616464726573732073686f756c64206e6f742062652030000060448201526064016102af565b50600160a060020a031660009081526004602052604090205490565b6060600280546101c39061076c565b600160a060020a0382166104c45760405160e560020a62461bcd02815260206004820152601f60248201527f5472616e7366657272696e6720746f2061207a65726f20616464726573732e0060448201526064016102af565b82600160a060020a03166104d782610377565b600160a060020a0316146105565760405160e560020a62461bcd02815260206004820152603760248201527f547279696e6720746f207472616e73666572206120746f6b656e20746861742060448201527f746865206164647265737320646f65736e2774206f776e00000000000000000060648201526084016102af565b600160a060020a038316600090815260046020526040812080546001929061057f90849061081e565b9091555050600160a060020a03821660009081526004602052604081208054600192906105ad908490610835565b9091555050600081815260036020526040808220805473ffffffffffffffffffffffffffffffffffffffff1916600160a060020a0386811691821790925591518493918716917fddf252ad1be2c89b69c2b068fc378daa952ba7f163c4a11628f55a4df523b3ef91a4505050565b60006020828403121561062d57600080fd5b81357bffffffffffffffffffffffffffffffffffffffffffffffffffffffff198116811461065a57600080fd5b9392505050565b600060208083528351808285015260005b8181101561068e57858101830151858201604001528201610672565b818111156106a0576000604083870101525b50601f01601f1916929092016040019392505050565b8035600160a060020a03811681146106cd57600080fd5b919050565b6000806000606084860312156106e757600080fd5b6106f0846106b6565b92506106fe602085016106b6565b9150604084013590509250925092565b6000806040838503121561072157600080fd5b61072a836106b6565b946020939093013593505050565b60006020828403121561074a57600080fd5b5035919050565b60006020828403121561076357600080fd5b61065a826106b6565b60028104600182168061078057607f821691505b602082108114156107ba577f4e487b7100000000000000000000000000000000000000000000000000000000600052602260045260246000fd5b50919050565b7f4e487b7100000000000000000000000000000000000000000000000000000000600052603260045260246000fd5b7f4e487b7100000000000000000000000000000000000000000000000000000000600052601160045260246000fd5b600082821015610830576108306107ef565b500390565b60008219821115610848576108486107ef565b50019056fea2646970667358221220790c1410de63eedd4f981096fa82750ca4ec6549fc0447c6943ede8f6c582b2864736f6c634300080b0033",
  "immutableReferences": {},
  "source": "// SPDX-License-Identifier: MIT\r\npragma solidity ^0.8.11;\r\n\r\n// since ERC721Enumerable.sol is already inheriting ERC721.sol\r\n// ERC721Connector.sol is inheriting ERC721.sol through ERCEnumerable.sol\r\n\r\nimport './ERC721Metadata.sol';\r\n//import './ERC721.sol';\r\nimport './ERC721Enumerable.sol';\r\n\r\ncontract ERC721Connector is ERC721Metadata, ERC721Enumerable {\r\n\r\n    constructor(string memory name, string memory symbol) ERC721Metadata(name, symbol) {\r\n\r\n    }\r\n}\r\n",
  "sourcePath": "F:\\Crypto Courses\\The Complete NFT Web Development Course - Zero To Expert\\Project NFT\\nft-marketplace-starter-kit\\src\\contracts\\ERC721Connector.sol",
  "compiler": {
    "name": "solc",
    "version": "0.8.11+commit.d7f03943.Emscripten.clang"
  },
  "schemaVersion": "3.4.5",
  "updatedAt": "2022-03-05T17:36:18.316Z",
  "devdoc": {
    "kind": "dev",
    "methods": {
      "balanceOf(address)": {
        "details": "NFTs assigned to the zero address are considered invalid, and this  function throws for queries about the zero address.",
        "params": {
          "_owner": "An address for whom to query the balance"
        },
        "returns": {
          "_0": "The number of NFTs owned by `_owner`, possibly zero"
        }
      },
      "ownerOf(uint256)": {
        "details": "NFTs assigned to zero address are considered invalid, and queries  about them do throw.",
        "params": {
          "_tokenId": "The identifier for an NFT"
        },
        "returns": {
          "_0": "The address of the owner of the NFT"
        }
      },
      "supportsInterface(bytes4)": {
        "details": "Interface identification is specified in ERC-165. This function  uses less than 30,000 gas.",
        "params": {
          "interfaceID": "The interface identifier, as specified in ERC-165"
        },
        "returns": {
          "_0": "`true` if the contract implements `interfaceID` and  `interfaceID` is not 0xffffffff, `false` otherwise"
        }
      },
      "tokenByIndex(uint256)": {
        "details": "Throws if `_index` >= `totalSupply()`.",
        "params": {
          "_index": "A counter less than `totalSupply()`"
        },
        "returns": {
          "_0": "The token identifier for the `_index`th NFT,  (sort order not specified)"
        }
      },
      "tokenOfOwnerByIndex(address,uint256)": {
        "details": "Throws if `_index` >= `balanceOf(_owner)` or if  `_owner` is the zero address, representing invalid NFTs.",
        "params": {
          "_index": "A counter less than `balanceOf(_owner)`",
          "_owner": "An address where we are interested in NFTs owned by them"
        },
        "returns": {
          "_0": "The token identifier for the `_index`th NFT assigned to `_owner`,   (sort order not specified)"
        }
      },
      "totalSupply()": {
        "returns": {
          "_0": "A count of valid NFTs tracked by this contract, where each one of  them has an assigned and queryable owner not equal to the zero address"
        }
      },
      "transferFrom(address,address,uint256)": {
        "details": "Throws unless `msg.sender` is the current owner, an authorized  operator, or the approved address for this NFT. Throws if `_from` is  not the current owner. Throws if `_to` is the zero address. Throws if  `_tokenId` is not a valid NFT.",
        "params": {
          "_from": "The current owner of the NFT",
          "_to": "The new owner",
          "_tokenId": "The NFT to transfer"
        }
      }
    },
    "version": 1
  },
  "userdoc": {
    "kind": "user",
    "methods": {
      "balanceOf(address)": {
        "notice": "Count all NFTs assigned to an owner"
      },
      "name()": {
        "notice": "A descriptive name for a collection of NFTs in this contract"
      },
      "ownerOf(uint256)": {
        "notice": "Find the owner of an NFT"
      },
      "supportsInterface(bytes4)": {
        "notice": "Query if a contract implements an interface"
      },
      "symbol()": {
        "notice": "An abbreviated name for NFTs in this contract"
      },
      "tokenByIndex(uint256)": {
        "notice": "Enumerate valid NFTs"
      },
      "tokenOfOwnerByIndex(address,uint256)": {
        "notice": "Enumerate NFTs assigned to an owner"
      },
      "totalSupply()": {
        "notice": "Count NFTs tracked by this contract"
      },
      "transferFrom(address,address,uint256)": {
        "notice": "Transfer ownership of an NFT -- THE CALLER IS RESPONSIBLE  TO CONFIRM THAT `_to` IS CAPABLE OF RECEIVING NFTS OR ELSE  THEY MAY BE PERMANENTLY LOST"
      }
    },
    "version": 1
  }
}