{
  "contractName": "ERC721Connector",
  "abi": [
    {
      "inputs": [
        {
          "internalType": "string",
          "name": "name",
          "type": "string"
        },
        {
          "internalType": "string",
          "name": "symbol",
          "type": "string"
        }
      ],
      "stateMutability": "nonpayable",
      "type": "constructor"
    },
    {
      "inputs": [],
      "name": "name",
      "outputs": [
        {
          "internalType": "string",
          "name": "",
          "type": "string"
        }
      ],
      "stateMutability": "view",
      "type": "function"
    },
    {
      "inputs": [],
      "name": "symbol",
      "outputs": [
        {
          "internalType": "string",
          "name": "",
          "type": "string"
        }
      ],
      "stateMutability": "view",
      "type": "function"
    }
  ],
  "bytecode": "0x608060405234801561001057600080fd5b5060405161049b38038061049b83398101604081905261002f916101d8565b815182908290610046906000906020850190610064565b50805161005a906001906020840190610064565b505050505061028f565b8280546100709061023b565b90600052602060002090601f01602090048101928261009257600085556100d8565b82601f106100ab57805160ff19168380011785556100d8565b828001600101855582156100d8579182015b828111156100d85782518255916020019190600101906100bd565b506100e49291506100e8565b5090565b5b808211156100e457600081556001016100e9565b7f4e487b7100000000000000000000000000000000000000000000000000000000600052604160045260246000fd5b600082601f83011261013d57600080fd5b81516001604060020a0380821115610157576101576100fd565b604051601f8301601f19908116603f0116810190828211818310171561017f5761017f6100fd565b8160405283815260209250868385880101111561019b57600080fd5b600091505b838210156101bd57858201830151818301840152908201906101a0565b838211156101ce5760008385830101525b9695505050505050565b600080604083850312156101eb57600080fd5b82516001604060020a038082111561020257600080fd5b61020e8683870161012c565b9350602085015191508082111561022457600080fd5b506102318582860161012c565b9150509250929050565b60028104600182168061024f57607f821691505b60208210811415610289577f4e487b7100000000000000000000000000000000000000000000000000000000600052602260045260246000fd5b50919050565b6101fd8061029e6000396000f3fe608060405234801561001057600080fd5b5060043610610052577c0100000000000000000000000000000000000000000000000000000000600035046306fdde03811461005757806395d89b4114610075575b600080fd5b61005f61007d565b60405161006c919061011e565b60405180910390f35b61005f61010f565b60606000805461008c90610173565b80601f01602080910402602001604051908101604052809291908181526020018280546100b890610173565b80156101055780601f106100da57610100808354040283529160200191610105565b820191906000526020600020905b8154815290600101906020018083116100e857829003601f168201915b5050505050905090565b60606001805461008c90610173565b600060208083528351808285015260005b8181101561014b5785810183015185820160400152820161012f565b8181111561015d576000604083870101525b50601f01601f1916929092016040019392505050565b60028104600182168061018757607f821691505b602082108114156101c1577f4e487b7100000000000000000000000000000000000000000000000000000000600052602260045260246000fd5b5091905056fea264697066735822122096e787760aa301f164d7070ef9570889dc3c95951724fd3c745a61e026a9114464736f6c634300080b0033",
  "immutableReferences": {},
  "source": "// SPDX-License-Identifier: MIT\r\npragma solidity ^0.8.11;\r\n\r\nimport './ERC721Metadata.sol';\r\n\r\ncontract ERC721Connector is ERC721Metadata {\r\n\r\n    constructor(string memory name, string memory symbol) ERC721Metadata(name, symbol) {\r\n\r\n    }\r\n}\r\n",
  "sourcePath": "F:\\Crypto Courses\\The Complete NFT Web Development Course - Zero To Expert\\Project NFT\\nft-marketplace-starter-kit\\src\\contracts\\ERC721Connector.sol",
  "compiler": {
    "name": "solc",
    "version": "0.8.11+commit.d7f03943.Emscripten.clang"
  },
  "schemaVersion": "3.4.5",
  "updatedAt": "2022-02-21T18:24:15.054Z",
  "devdoc": {
    "kind": "dev",
    "methods": {},
    "version": 1
  },
  "userdoc": {
    "kind": "user",
    "methods": {},
    "version": 1
  }
}