{
  "contractName": "ERC721Connector",
  "abi": [
    {
      "inputs": [
        {
          "internalType": "string",
          "name": "name",
          "type": "string"
        },
        {
          "internalType": "string",
          "name": "symbol",
          "type": "string"
        }
      ],
      "stateMutability": "nonpayable",
      "type": "constructor"
    },
    {
      "anonymous": false,
      "inputs": [
        {
          "indexed": true,
          "internalType": "address",
          "name": "from",
          "type": "address"
        },
        {
          "indexed": true,
          "internalType": "address",
          "name": "to",
          "type": "address"
        },
        {
          "indexed": true,
          "internalType": "uint256",
          "name": "tokenId",
          "type": "uint256"
        }
      ],
      "name": "Transfer",
      "type": "event"
    },
    {
      "inputs": [
        {
          "internalType": "address",
          "name": "_owner",
          "type": "address"
        }
      ],
      "name": "balanceOf",
      "outputs": [
        {
          "internalType": "uint256",
          "name": "",
          "type": "uint256"
        }
      ],
      "stateMutability": "view",
      "type": "function"
    },
    {
      "inputs": [],
      "name": "name",
      "outputs": [
        {
          "internalType": "string",
          "name": "",
          "type": "string"
        }
      ],
      "stateMutability": "view",
      "type": "function"
    },
    {
      "inputs": [
        {
          "internalType": "uint256",
          "name": "_tokenId",
          "type": "uint256"
        }
      ],
      "name": "ownerOf",
      "outputs": [
        {
          "internalType": "address",
          "name": "",
          "type": "address"
        }
      ],
      "stateMutability": "view",
      "type": "function"
    },
    {
      "inputs": [],
      "name": "symbol",
      "outputs": [
        {
          "internalType": "string",
          "name": "",
          "type": "string"
        }
      ],
      "stateMutability": "view",
      "type": "function"
    }
  ],
  "bytecode": "0x608060405234801561001057600080fd5b5060405161069f38038061069f83398101604081905261002f916101d8565b815182908290610046906000906020850190610064565b50805161005a906001906020840190610064565b505050505061028f565b8280546100709061023b565b90600052602060002090601f01602090048101928261009257600085556100d8565b82601f106100ab57805160ff19168380011785556100d8565b828001600101855582156100d8579182015b828111156100d85782518255916020019190600101906100bd565b506100e49291506100e8565b5090565b5b808211156100e457600081556001016100e9565b7f4e487b7100000000000000000000000000000000000000000000000000000000600052604160045260246000fd5b600082601f83011261013d57600080fd5b81516001604060020a0380821115610157576101576100fd565b604051601f8301601f19908116603f0116810190828211818310171561017f5761017f6100fd565b8160405283815260209250868385880101111561019b57600080fd5b600091505b838210156101bd57858201830151818301840152908201906101a0565b838211156101ce5760008385830101525b9695505050505050565b600080604083850312156101eb57600080fd5b82516001604060020a038082111561020257600080fd5b61020e8683870161012c565b9350602085015191508082111561022457600080fd5b506102318582860161012c565b9150509250929050565b60028104600182168061024f57607f821691505b60208210811415610289577f4e487b7100000000000000000000000000000000000000000000000000000000600052602260045260246000fd5b50919050565b6104018061029e6000396000f3fe608060405234801561001057600080fd5b5060043610610068577c0100000000000000000000000000000000000000000000000000000000600035046306fdde03811461006d5780636352211e1461008b57806370a08231146100c357806395d89b41146100e4575b600080fd5b6100756100ec565b60405161008291906102cc565b60405180910390f35b61009e610099366004610321565b61017e565b60405173ffffffffffffffffffffffffffffffffffffffff9091168152602001610082565b6100d66100d136600461033a565b610215565b604051908152602001610082565b6100756102bd565b6060600080546100fb90610377565b80601f016020809104026020016040519081016040528092919081815260200182805461012790610377565b80156101745780601f1061014957610100808354040283529160200191610174565b820191906000526020600020905b81548152906001019060200180831161015757829003601f168201915b5050505050905090565b60008181526002602052604081205473ffffffffffffffffffffffffffffffffffffffff168061020f576040517f08c379a000000000000000000000000000000000000000000000000000000000815260206004820152601d60248201527f6f776e657220616464726573732073686f756c64206e6f74206265203000000060448201526064015b60405180910390fd5b92915050565b600073ffffffffffffffffffffffffffffffffffffffff8216610294576040517f08c379a000000000000000000000000000000000000000000000000000000000815260206004820152601e60248201527f5f6f776e657220616464726573732073686f756c64206e6f74206265203000006044820152606401610206565b5073ffffffffffffffffffffffffffffffffffffffff1660009081526003602052604090205490565b6060600180546100fb90610377565b600060208083528351808285015260005b818110156102f9578581018301518582016040015282016102dd565b8181111561030b576000604083870101525b50601f01601f1916929092016040019392505050565b60006020828403121561033357600080fd5b5035919050565b60006020828403121561034c57600080fd5b813573ffffffffffffffffffffffffffffffffffffffff8116811461037057600080fd5b9392505050565b60028104600182168061038b57607f821691505b602082108114156103c5577f4e487b7100000000000000000000000000000000000000000000000000000000600052602260045260246000fd5b5091905056fea26469706673582212200190345bd0f66e51cb49bd2bcb456d65a203cc9f5a2629aea99602c33783ca3764736f6c634300080b0033",
  "immutableReferences": {},
  "source": "// SPDX-License-Identifier: MIT\r\npragma solidity ^0.8.11;\r\n\r\nimport './ERC721Metadata.sol';\r\nimport './ERC721.sol';\r\n\r\ncontract ERC721Connector is ERC721Metadata, ERC721 {\r\n\r\n    constructor(string memory name, string memory symbol) ERC721Metadata(name, symbol) {\r\n\r\n    }\r\n}\r\n",
  "sourcePath": "F:\\Crypto Courses\\The Complete NFT Web Development Course - Zero To Expert\\Project NFT\\nft-marketplace-starter-kit\\src\\contracts\\ERC721Connector.sol",
  "compiler": {
    "name": "solc",
    "version": "0.8.11+commit.d7f03943.Emscripten.clang"
  },
  "schemaVersion": "3.4.5",
  "updatedAt": "2022-02-25T15:35:35.469Z",
  "devdoc": {
    "kind": "dev",
    "methods": {
      "balanceOf(address)": {
        "details": "NFTs assigned to the zero address are considered invalid, and this  function throws for queries about the zero address.",
        "params": {
          "_owner": "An address for whom to query the balance"
        },
        "returns": {
          "_0": "The number of NFTs owned by `_owner`, possibly zero"
        }
      },
      "ownerOf(uint256)": {
        "details": "NFTs assigned to zero address are considered invalid, and queries  about them do throw.",
        "params": {
          "_tokenId": "The identifier for an NFT"
        },
        "returns": {
          "_0": "The address of the owner of the NFT"
        }
      }
    },
    "version": 1
  },
  "userdoc": {
    "kind": "user",
    "methods": {
      "balanceOf(address)": {
        "notice": "Count all NFTs assigned to an owner"
      },
      "ownerOf(uint256)": {
        "notice": "Find the owner of an NFT"
      }
    },
    "version": 1
  }
}