{
  "contractName": "ERC721Enumerable",
  "abi": [
    {
      "anonymous": false,
      "inputs": [
        {
          "indexed": true,
          "internalType": "address",
          "name": "from",
          "type": "address"
        },
        {
          "indexed": true,
          "internalType": "address",
          "name": "to",
          "type": "address"
        },
        {
          "indexed": true,
          "internalType": "uint256",
          "name": "tokenId",
          "type": "uint256"
        }
      ],
      "name": "Transfer",
      "type": "event"
    },
    {
      "inputs": [
        {
          "internalType": "address",
          "name": "_owner",
          "type": "address"
        }
      ],
      "name": "balanceOf",
      "outputs": [
        {
          "internalType": "uint256",
          "name": "",
          "type": "uint256"
        }
      ],
      "stateMutability": "view",
      "type": "function"
    },
    {
      "inputs": [
        {
          "internalType": "uint256",
          "name": "_tokenId",
          "type": "uint256"
        }
      ],
      "name": "ownerOf",
      "outputs": [
        {
          "internalType": "address",
          "name": "",
          "type": "address"
        }
      ],
      "stateMutability": "view",
      "type": "function"
    },
    {
      "inputs": [
        {
          "internalType": "address",
          "name": "_from",
          "type": "address"
        },
        {
          "internalType": "address",
          "name": "_to",
          "type": "address"
        },
        {
          "internalType": "uint256",
          "name": "_tokenId",
          "type": "uint256"
        }
      ],
      "name": "transferFrom",
      "outputs": [],
      "stateMutability": "payable",
      "type": "function"
    },
    {
      "inputs": [
        {
          "internalType": "uint256",
          "name": "_index",
          "type": "uint256"
        }
      ],
      "name": "tokenByIndex",
      "outputs": [
        {
          "internalType": "uint256",
          "name": "",
          "type": "uint256"
        }
      ],
      "stateMutability": "view",
      "type": "function"
    },
    {
      "inputs": [
        {
          "internalType": "address",
          "name": "_owner",
          "type": "address"
        },
        {
          "internalType": "uint256",
          "name": "_index",
          "type": "uint256"
        }
      ],
      "name": "tokenOfOwnerByIndex",
      "outputs": [
        {
          "internalType": "uint256",
          "name": "",
          "type": "uint256"
        }
      ],
      "stateMutability": "view",
      "type": "function"
    },
    {
      "inputs": [],
      "name": "totalSupply",
      "outputs": [
        {
          "internalType": "uint256",
          "name": "",
          "type": "uint256"
        }
      ],
      "stateMutability": "view",
      "type": "function"
    }
  ],
  "bytecode": "0x608060405234801561001057600080fd5b50610691806100206000396000f3fe608060405260043610610071577c0100000000000000000000000000000000000000000000000000000000600035046318160ddd811461007657806323b872dd1461009a5780632f745c59146100af5780634f6ccce7146100cf5780636352211e146100ef57806370a0823114610127575b600080fd5b34801561008257600080fd5b506003545b6040519081526020015b60405180910390f35b6100ad6100a836600461052d565b610147565b005b3480156100bb57600080fd5b506100876100ca366004610569565b610157565b3480156100db57600080fd5b506100876100ea366004610593565b6101f6565b3480156100fb57600080fd5b5061010f61010a366004610593565b610278565b604051600160a060020a039091168152602001610091565b34801561013357600080fd5b506100876101423660046105ac565b6102e6565b61015283838361035d565b505050565b6000610162836102e6565b8211156101b95760405160e560020a62461bcd02815260206004820152601d60248201527f6f776e657220696e646578206973206f7574206f6620626f756e64732100000060448201526064015b60405180910390fd5b600160a060020a03831660009081526005602052604090208054839081106101e3576101e36105ce565b9060005260206000200154905092915050565b600061020160035490565b8211156102535760405160e560020a62461bcd02815260206004820152601e60248201527f676c6f62616c20696e646578206973206f7574206f6620626f756e647321000060448201526064016101b0565b60038281548110610266576102666105ce565b90600052602060002001549050919050565b600081815260208190526040812054600160a060020a0316806102e05760405160e560020a62461bcd02815260206004820152601d60248201527f6f776e657220616464726573732073686f756c64206e6f74206265203000000060448201526064016101b0565b92915050565b6000600160a060020a0382166103415760405160e560020a62461bcd02815260206004820152601e60248201527f5f6f776e657220616464726573732073686f756c64206e6f742062652030000060448201526064016101b0565b50600160a060020a031660009081526001602052604090205490565b600160a060020a0382166103b65760405160e560020a62461bcd02815260206004820152601f60248201527f5472616e7366657272696e6720746f2061207a65726f20616464726573732e0060448201526064016101b0565b82600160a060020a03166103c982610278565b600160a060020a0316146104485760405160e560020a62461bcd02815260206004820152603760248201527f547279696e6720746f207472616e73666572206120746f6b656e20746861742060448201527f746865206164647265737320646f65736e2774206f776e00000000000000000060648201526084016101b0565b600160a060020a0383166000908152600160208190526040822080549192909161047390849061062c565b9091555050600160a060020a038216600090815260016020819052604082208054919290916104a3908490610643565b9091555050600081815260208190526040808220805473ffffffffffffffffffffffffffffffffffffffff1916600160a060020a0386811691821790925591518493918716917fddf252ad1be2c89b69c2b068fc378daa952ba7f163c4a11628f55a4df523b3ef91a4505050565b8035600160a060020a038116811461052857600080fd5b919050565b60008060006060848603121561054257600080fd5b61054b84610511565b925061055960208501610511565b9150604084013590509250925092565b6000806040838503121561057c57600080fd5b61058583610511565b946020939093013593505050565b6000602082840312156105a557600080fd5b5035919050565b6000602082840312156105be57600080fd5b6105c782610511565b9392505050565b7f4e487b7100000000000000000000000000000000000000000000000000000000600052603260045260246000fd5b7f4e487b7100000000000000000000000000000000000000000000000000000000600052601160045260246000fd5b60008282101561063e5761063e6105fd565b500390565b60008219821115610656576106566105fd565b50019056fea2646970667358221220b93fbad229f08ee0394adb1d5ebbfcb19cc72f7558d2529966b814c15f44129a64736f6c634300080b0033",
  "immutableReferences": {},
  "source": "// SPDX-License-Identifier: MIT\r\npragma solidity ^0.8.11;\r\n\r\nimport './ERC721.sol'; // in order to get access to the _mint and other functions\r\n\r\ncontract ERC721Enumerable is ERC721 {\r\n\r\n    uint256[] private _allTokens;\r\n\r\n    // mapping from tokenId to position (index) in _allTokens array\r\n    mapping(uint256 => uint256) private _allTokensIndex;\r\n    // mapping from owner address to list (array) of all owned tokenIds\r\n    mapping(address => uint256[]) private _ownedTokens;\r\n    // mapping from tokenId to index of the owner tokens list\r\n    mapping(uint256 => uint256) private _owenedTokensIndex;\r\n\r\n\r\n    /// @notice Enumerate valid NFTs\r\n    /// @dev Throws if `_index` >= `totalSupply()`.\r\n    /// @param _index A counter less than `totalSupply()`\r\n    /// @return The token identifier for the `_index`th NFT,\r\n    ///  (sort order not specified)\r\n    function tokenByIndex(uint256 _index) public view returns (uint256){\r\n        require(_index <= totalSupply(), 'global index is out of bounds!');\r\n        return _allTokens[_index];\r\n    }\r\n\r\n    /// @notice Enumerate NFTs assigned to an owner\r\n    /// @dev Throws if `_index` >= `balanceOf(_owner)` or if\r\n    ///  `_owner` is the zero address, representing invalid NFTs.\r\n    /// @param _owner An address where we are interested in NFTs owned by them\r\n    /// @param _index A counter less than `balanceOf(_owner)`\r\n    /// @return The token identifier for the `_index`th NFT assigned to `_owner`,\r\n    ///   (sort order not specified)\r\n    function tokenOfOwnerByIndex(address _owner, uint256 _index) public view returns (uint256){\r\n        require(_index <= balanceOf(_owner), 'owner index is out of bounds!');\r\n        return _ownedTokens[_owner][_index];\r\n    }\r\n\r\n    function _mint(address to, uint256 tokenId) internal override(ERC721){\r\n        // access the _mint() function from ERC721.sol contract\r\n        super._mint(to, tokenId);\r\n\r\n        _addTokensToAllTokenEnumeration(tokenId);\r\n        _addTokensToOwnerEnumeration(to, tokenId);\r\n    }\r\n\r\n    function _addTokensToAllTokenEnumeration(uint256 tokenId) private{\r\n        _allTokensIndex[tokenId] = _allTokens.length;\r\n        _allTokens.push(tokenId);\r\n    }\r\n\r\n    function _addTokensToOwnerEnumeration(address to, uint256 tokenId) private{\r\n        // 1. add address and token id to the _ownedTokens\r\n        _ownedTokens[to].push(tokenId);\r\n        // 2. ownedTokensIndex token id set to address of ownedTokens position\r\n        _owenedTokensIndex[tokenId] = _ownedTokens[to].length;\r\n        // 3. execute this function with minting\r\n    }\r\n\r\n    /// @notice Count NFTs tracked by this contract\r\n    /// @return A count of valid NFTs tracked by this contract, where each one of\r\n    ///  them has an assigned and queryable owner not equal to the zero address\r\n    function totalSupply() public view returns (uint256){\r\n        return _allTokens.length;\r\n    }\r\n\r\n    \r\n}",
  "sourcePath": "F:\\Crypto Courses\\The Complete NFT Web Development Course - Zero To Expert\\Project NFT\\nft-marketplace-starter-kit\\src\\contracts\\ERC721Enumerable.sol",
  "compiler": {
    "name": "solc",
    "version": "0.8.11+commit.d7f03943.Emscripten.clang"
  },
  "schemaVersion": "3.4.5",
  "updatedAt": "2022-03-01T10:22:31.245Z",
  "devdoc": {
    "kind": "dev",
    "methods": {
      "balanceOf(address)": {
        "details": "NFTs assigned to the zero address are considered invalid, and this  function throws for queries about the zero address.",
        "params": {
          "_owner": "An address for whom to query the balance"
        },
        "returns": {
          "_0": "The number of NFTs owned by `_owner`, possibly zero"
        }
      },
      "ownerOf(uint256)": {
        "details": "NFTs assigned to zero address are considered invalid, and queries  about them do throw.",
        "params": {
          "_tokenId": "The identifier for an NFT"
        },
        "returns": {
          "_0": "The address of the owner of the NFT"
        }
      },
      "tokenByIndex(uint256)": {
        "details": "Throws if `_index` >= `totalSupply()`.",
        "params": {
          "_index": "A counter less than `totalSupply()`"
        },
        "returns": {
          "_0": "The token identifier for the `_index`th NFT,  (sort order not specified)"
        }
      },
      "tokenOfOwnerByIndex(address,uint256)": {
        "details": "Throws if `_index` >= `balanceOf(_owner)` or if  `_owner` is the zero address, representing invalid NFTs.",
        "params": {
          "_index": "A counter less than `balanceOf(_owner)`",
          "_owner": "An address where we are interested in NFTs owned by them"
        },
        "returns": {
          "_0": "The token identifier for the `_index`th NFT assigned to `_owner`,   (sort order not specified)"
        }
      },
      "totalSupply()": {
        "returns": {
          "_0": "A count of valid NFTs tracked by this contract, where each one of  them has an assigned and queryable owner not equal to the zero address"
        }
      }
    },
    "version": 1
  },
  "userdoc": {
    "kind": "user",
    "methods": {
      "balanceOf(address)": {
        "notice": "Count all NFTs assigned to an owner"
      },
      "ownerOf(uint256)": {
        "notice": "Find the owner of an NFT"
      },
      "tokenByIndex(uint256)": {
        "notice": "Enumerate valid NFTs"
      },
      "tokenOfOwnerByIndex(address,uint256)": {
        "notice": "Enumerate NFTs assigned to an owner"
      },
      "totalSupply()": {
        "notice": "Count NFTs tracked by this contract"
      }
    },
    "version": 1
  }
}