{
  "contractName": "ERC721Metadata",
  "abi": [
    {
      "inputs": [
        {
          "internalType": "string",
          "name": "named",
          "type": "string"
        },
        {
          "internalType": "string",
          "name": "symbolified",
          "type": "string"
        }
      ],
      "stateMutability": "nonpayable",
      "type": "constructor"
    },
    {
      "inputs": [
        {
          "internalType": "bytes4",
          "name": "interfaceID",
          "type": "bytes4"
        }
      ],
      "name": "supportsInterface",
      "outputs": [
        {
          "internalType": "bool",
          "name": "",
          "type": "bool"
        }
      ],
      "stateMutability": "view",
      "type": "function"
    },
    {
      "inputs": [],
      "name": "name",
      "outputs": [
        {
          "internalType": "string",
          "name": "",
          "type": "string"
        }
      ],
      "stateMutability": "view",
      "type": "function"
    },
    {
      "inputs": [],
      "name": "symbol",
      "outputs": [
        {
          "internalType": "string",
          "name": "",
          "type": "string"
        }
      ],
      "stateMutability": "view",
      "type": "function"
    }
  ],
  "bytecode": "0x608060405234801561001057600080fd5b5060405161066538038061066583398101604081905261002f91610303565b6100617f01ffc9a7a5cef8baa21ed3c5c0d7e23accb804b619e9333b597f47a0d84076e26401000000006100c2810204565b6100937f6c5b7360b116f8fd1d2a1ccb905de5c6a9e91e31b88b8db3cd997e184f357e9f6401000000006100c2810204565b81516100a690600190602085019061018f565b5080516100ba90600290602084019061018f565b5050506103ba565b7fffffffff000000000000000000000000000000000000000000000000000000008082161415610152576040517f08c379a000000000000000000000000000000000000000000000000000000000815260206004820152601a60248201527f4572726f723a20496e76616c696420696e746572666163654964000000000000604482015260640160405180910390fd5b7fffffffff00000000000000000000000000000000000000000000000000000000166000908152602081905260409020805460ff19166001179055565b82805461019b90610366565b90600052602060002090601f0160209004810192826101bd5760008555610203565b82601f106101d657805160ff1916838001178555610203565b82800160010185558215610203579182015b828111156102035782518255916020019190600101906101e8565b5061020f929150610213565b5090565b5b8082111561020f5760008155600101610214565b7f4e487b7100000000000000000000000000000000000000000000000000000000600052604160045260246000fd5b600082601f83011261026857600080fd5b81516001604060020a038082111561028257610282610228565b604051601f8301601f19908116603f011681019082821181831017156102aa576102aa610228565b816040528381526020925086838588010111156102c657600080fd5b600091505b838210156102e857858201830151818301840152908201906102cb565b838211156102f95760008385830101525b9695505050505050565b6000806040838503121561031657600080fd5b82516001604060020a038082111561032d57600080fd5b61033986838701610257565b9350602085015191508082111561034f57600080fd5b5061035c85828601610257565b9150509250929050565b60028104600182168061037a57607f821691505b602082108114156103b4577f4e487b7100000000000000000000000000000000000000000000000000000000600052602260045260246000fd5b50919050565b61029c806103c96000396000f3fe608060405234801561001057600080fd5b506004361061005d577c0100000000000000000000000000000000000000000000000000000000600035046301ffc9a7811461006257806306fdde03146100b957806395d89b41146100ce575b600080fd5b6100a4610070366004610177565b7bffffffffffffffffffffffffffffffffffffffffffffffffffffffff191660009081526020819052604090205460ff1690565b60405190151581526020015b60405180910390f35b6100c16100d6565b6040516100b091906101bd565b6100c1610168565b6060600180546100e590610212565b80601f016020809104026020016040519081016040528092919081815260200182805461011190610212565b801561015e5780601f106101335761010080835404028352916020019161015e565b820191906000526020600020905b81548152906001019060200180831161014157829003601f168201915b5050505050905090565b6060600280546100e590610212565b60006020828403121561018957600080fd5b81357bffffffffffffffffffffffffffffffffffffffffffffffffffffffff19811681146101b657600080fd5b9392505050565b600060208083528351808285015260005b818110156101ea578581018301518582016040015282016101ce565b818111156101fc576000604083870101525b50601f01601f1916929092016040019392505050565b60028104600182168061022657607f821691505b60208210811415610260577f4e487b7100000000000000000000000000000000000000000000000000000000600052602260045260246000fd5b5091905056fea2646970667358221220e1e7ac1713b24166fbaf83a1274d0285d46ceccf3400f7cf8c99e57b66251f5264736f6c634300080b0033",
  "immutableReferences": {},
  "source": "// SPDX-License-Identifier: MIT\r\npragma solidity ^0.8.11;\r\n\r\nimport './interfaces/IERC721Metadata.sol';\r\nimport './ERC165.sol';\r\n\r\n\r\ncontract ERC721Metadata is IERC721Metadata, ERC165{\r\n    string private _name;\r\n    string private _symbol;\r\n\r\n    constructor(string memory named, string memory symbolified){\r\n        _registerInterface(bytes4(\r\n            keccak256('name(bytes4)')^\r\n            keccak256('symbol(bytes4)')\r\n        ));\r\n        _name = named;\r\n        _symbol = symbolified;\r\n    }\r\n\r\n    // Only functions can be marked external. \r\n    // External functions are part of the contract interface and can be \r\n    // called from other contracts and transactions. \r\n    function name() external view override returns(string memory){\r\n        return _name;\r\n    }\r\n\r\n    function symbol() external view override returns(string memory){\r\n        return _symbol;\r\n    }\r\n}\r\n",
  "sourcePath": "F:\\Crypto Courses\\The Complete NFT Web Development Course - Zero To Expert\\Project NFT\\nft-marketplace-starter-kit\\src\\contracts\\ERC721Metadata.sol",
  "compiler": {
    "name": "solc",
    "version": "0.8.11+commit.d7f03943.Emscripten.clang"
  },
  "schemaVersion": "3.4.5",
  "updatedAt": "2022-03-05T17:36:18.368Z",
  "devdoc": {
    "kind": "dev",
    "methods": {
      "supportsInterface(bytes4)": {
        "details": "Interface identification is specified in ERC-165. This function  uses less than 30,000 gas.",
        "params": {
          "interfaceID": "The interface identifier, as specified in ERC-165"
        },
        "returns": {
          "_0": "`true` if the contract implements `interfaceID` and  `interfaceID` is not 0xffffffff, `false` otherwise"
        }
      }
    },
    "version": 1
  },
  "userdoc": {
    "kind": "user",
    "methods": {
      "name()": {
        "notice": "A descriptive name for a collection of NFTs in this contract"
      },
      "supportsInterface(bytes4)": {
        "notice": "Query if a contract implements an interface"
      },
      "symbol()": {
        "notice": "An abbreviated name for NFTs in this contract"
      }
    },
    "version": 1
  }
}