{
  "contractName": "ERC721Connector",
  "abi": [
    {
      "inputs": [
        {
          "internalType": "string",
          "name": "name",
          "type": "string"
        },
        {
          "internalType": "string",
          "name": "symbol",
          "type": "string"
        }
      ],
      "stateMutability": "nonpayable",
      "type": "constructor"
    },
    {
      "anonymous": false,
      "inputs": [
        {
          "indexed": true,
          "internalType": "address",
          "name": "from",
          "type": "address"
        },
        {
          "indexed": true,
          "internalType": "address",
          "name": "to",
          "type": "address"
        },
        {
          "indexed": true,
          "internalType": "uint256",
          "name": "tokenId",
          "type": "uint256"
        }
      ],
      "name": "Transfer",
      "type": "event"
    },
    {
      "inputs": [
        {
          "internalType": "address",
          "name": "_owner",
          "type": "address"
        }
      ],
      "name": "balanceOf",
      "outputs": [
        {
          "internalType": "uint256",
          "name": "",
          "type": "uint256"
        }
      ],
      "stateMutability": "view",
      "type": "function"
    },
    {
      "inputs": [],
      "name": "name",
      "outputs": [
        {
          "internalType": "string",
          "name": "",
          "type": "string"
        }
      ],
      "stateMutability": "view",
      "type": "function"
    },
    {
      "inputs": [
        {
          "internalType": "uint256",
          "name": "_tokenId",
          "type": "uint256"
        }
      ],
      "name": "ownerOf",
      "outputs": [
        {
          "internalType": "address",
          "name": "",
          "type": "address"
        }
      ],
      "stateMutability": "view",
      "type": "function"
    },
    {
      "inputs": [],
      "name": "symbol",
      "outputs": [
        {
          "internalType": "string",
          "name": "",
          "type": "string"
        }
      ],
      "stateMutability": "view",
      "type": "function"
    },
    {
      "inputs": [
        {
          "internalType": "uint256",
          "name": "_index",
          "type": "uint256"
        }
      ],
      "name": "tokenByIndex",
      "outputs": [
        {
          "internalType": "uint256",
          "name": "",
          "type": "uint256"
        }
      ],
      "stateMutability": "view",
      "type": "function"
    },
    {
      "inputs": [
        {
          "internalType": "address",
          "name": "_owner",
          "type": "address"
        },
        {
          "internalType": "uint256",
          "name": "_index",
          "type": "uint256"
        }
      ],
      "name": "tokenOfOwnerByIndex",
      "outputs": [
        {
          "internalType": "uint256",
          "name": "",
          "type": "uint256"
        }
      ],
      "stateMutability": "view",
      "type": "function"
    },
    {
      "inputs": [],
      "name": "totalSupply",
      "outputs": [
        {
          "internalType": "uint256",
          "name": "",
          "type": "uint256"
        }
      ],
      "stateMutability": "view",
      "type": "function"
    }
  ],
  "bytecode": "0x608060405234801561001057600080fd5b5060405161073738038061073783398101604081905261002f916101d8565b815182908290610046906000906020850190610064565b50805161005a906001906020840190610064565b505050505061028f565b8280546100709061023b565b90600052602060002090601f01602090048101928261009257600085556100d8565b82601f106100ab57805160ff19168380011785556100d8565b828001600101855582156100d8579182015b828111156100d85782518255916020019190600101906100bd565b506100e49291506100e8565b5090565b5b808211156100e457600081556001016100e9565b7f4e487b7100000000000000000000000000000000000000000000000000000000600052604160045260246000fd5b600082601f83011261013d57600080fd5b81516001604060020a0380821115610157576101576100fd565b604051601f8301601f19908116603f0116810190828211818310171561017f5761017f6100fd565b8160405283815260209250868385880101111561019b57600080fd5b600091505b838210156101bd57858201830151818301840152908201906101a0565b838211156101ce5760008385830101525b9695505050505050565b600080604083850312156101eb57600080fd5b82516001604060020a038082111561020257600080fd5b61020e8683870161012c565b9350602085015191508082111561022457600080fd5b506102318582860161012c565b9150509250929050565b60028104600182168061024f57607f821691505b60208210811415610289577f4e487b7100000000000000000000000000000000000000000000000000000000600052602260045260246000fd5b50919050565b6104998061029e6000396000f3fe608060405234801561001057600080fd5b506004361061009a576000357c0100000000000000000000000000000000000000000000000000000000900480634f6ccce7116100785780634f6ccce7146100e55780636352211e146100f957806370a082311461013157806395d89b411461014457600080fd5b806306fdde031461009f57806318160ddd146100bd5780632f745c59146100cf575b600080fd5b6100a761014c565b6040516100b4919061032c565b60405180910390f35b6004545b6040519081526020016100b4565b6100c16100dd3660046103aa565b600092915050565b6100c16100f33660046103d4565b50600090565b61010c6101073660046103d4565b6101de565b60405173ffffffffffffffffffffffffffffffffffffffff90911681526020016100b4565b6100c161013f3660046103ed565b610275565b6100a761031d565b60606000805461015b9061040f565b80601f01602080910402602001604051908101604052809291908181526020018280546101879061040f565b80156101d45780601f106101a9576101008083540402835291602001916101d4565b820191906000526020600020905b8154815290600101906020018083116101b757829003601f168201915b5050505050905090565b60008181526002602052604081205473ffffffffffffffffffffffffffffffffffffffff168061026f576040517f08c379a000000000000000000000000000000000000000000000000000000000815260206004820152601d60248201527f6f776e657220616464726573732073686f756c64206e6f74206265203000000060448201526064015b60405180910390fd5b92915050565b600073ffffffffffffffffffffffffffffffffffffffff82166102f4576040517f08c379a000000000000000000000000000000000000000000000000000000000815260206004820152601e60248201527f5f6f776e657220616464726573732073686f756c64206e6f74206265203000006044820152606401610266565b5073ffffffffffffffffffffffffffffffffffffffff1660009081526003602052604090205490565b60606001805461015b9061040f565b600060208083528351808285015260005b818110156103595785810183015185820160400152820161033d565b8181111561036b576000604083870101525b50601f01601f1916929092016040019392505050565b803573ffffffffffffffffffffffffffffffffffffffff811681146103a557600080fd5b919050565b600080604083850312156103bd57600080fd5b6103c683610381565b946020939093013593505050565b6000602082840312156103e657600080fd5b5035919050565b6000602082840312156103ff57600080fd5b61040882610381565b9392505050565b60028104600182168061042357607f821691505b6020821081141561045d577f4e487b7100000000000000000000000000000000000000000000000000000000600052602260045260246000fd5b5091905056fea2646970667358221220c0251e3e894d03641f49da1b55ae51d4cf24d2a4db3eaf7217135595b811c8b764736f6c634300080b0033",
  "immutableReferences": {},
  "source": "// SPDX-License-Identifier: MIT\r\npragma solidity ^0.8.11;\r\n\r\n// since ERC721Enumerable.sol is already inheriting ERC721.sol\r\n// ERC721Connector.sol is inheriting ERC721.sol through ERCEnumerable.sol\r\n\r\nimport './ERC721Metadata.sol';\r\n//import './ERC721.sol';\r\nimport './ERC721Enumerable.sol';\r\n\r\ncontract ERC721Connector is ERC721Metadata, ERC721Enumerable {\r\n\r\n    constructor(string memory name, string memory symbol) ERC721Metadata(name, symbol) {\r\n\r\n    }\r\n}\r\n",
  "sourcePath": "F:\\Crypto Courses\\The Complete NFT Web Development Course - Zero To Expert\\Project NFT\\nft-marketplace-starter-kit\\src\\contracts\\ERC721Connector.sol",
  "compiler": {
    "name": "solc",
    "version": "0.8.11+commit.d7f03943.Emscripten.clang"
  },
  "schemaVersion": "3.4.5",
  "updatedAt": "2022-02-27T06:57:15.053Z",
  "devdoc": {
    "kind": "dev",
    "methods": {
      "balanceOf(address)": {
        "details": "NFTs assigned to the zero address are considered invalid, and this  function throws for queries about the zero address.",
        "params": {
          "_owner": "An address for whom to query the balance"
        },
        "returns": {
          "_0": "The number of NFTs owned by `_owner`, possibly zero"
        }
      },
      "ownerOf(uint256)": {
        "details": "NFTs assigned to zero address are considered invalid, and queries  about them do throw.",
        "params": {
          "_tokenId": "The identifier for an NFT"
        },
        "returns": {
          "_0": "The address of the owner of the NFT"
        }
      },
      "tokenByIndex(uint256)": {
        "details": "Throws if `_index` >= `totalSupply()`.",
        "params": {
          "_index": "A counter less than `totalSupply()`"
        },
        "returns": {
          "_0": "The token identifier for the `_index`th NFT,  (sort order not specified)"
        }
      },
      "tokenOfOwnerByIndex(address,uint256)": {
        "details": "Throws if `_index` >= `balanceOf(_owner)` or if  `_owner` is the zero address, representing invalid NFTs.",
        "params": {
          "_index": "A counter less than `balanceOf(_owner)`",
          "_owner": "An address where we are interested in NFTs owned by them"
        },
        "returns": {
          "_0": "The token identifier for the `_index`th NFT assigned to `_owner`,   (sort order not specified)"
        }
      },
      "totalSupply()": {
        "returns": {
          "_0": "A count of valid NFTs tracked by this contract, where each one of  them has an assigned and queryable owner not equal to the zero address"
        }
      }
    },
    "version": 1
  },
  "userdoc": {
    "kind": "user",
    "methods": {
      "balanceOf(address)": {
        "notice": "Count all NFTs assigned to an owner"
      },
      "ownerOf(uint256)": {
        "notice": "Find the owner of an NFT"
      },
      "tokenByIndex(uint256)": {
        "notice": "Enumerate valid NFTs"
      },
      "tokenOfOwnerByIndex(address,uint256)": {
        "notice": "Enumerate NFTs assigned to an owner"
      },
      "totalSupply()": {
        "notice": "Count NFTs tracked by this contract"
      }
    },
    "version": 1
  }
}