{
  "contractName": "KryptoBird",
  "abi": [
    {
      "inputs": [],
      "stateMutability": "nonpayable",
      "type": "constructor"
    },
    {
      "anonymous": false,
      "inputs": [
        {
          "indexed": true,
          "internalType": "address",
          "name": "_owner",
          "type": "address"
        },
        {
          "indexed": true,
          "internalType": "address",
          "name": "_approved",
          "type": "address"
        },
        {
          "indexed": true,
          "internalType": "uint256",
          "name": "_tokenId",
          "type": "uint256"
        }
      ],
      "name": "Approval",
      "type": "event"
    },
    {
      "anonymous": false,
      "inputs": [
        {
          "indexed": true,
          "internalType": "address",
          "name": "_from",
          "type": "address"
        },
        {
          "indexed": true,
          "internalType": "address",
          "name": "_to",
          "type": "address"
        },
        {
          "indexed": true,
          "internalType": "uint256",
          "name": "_tokenId",
          "type": "uint256"
        }
      ],
      "name": "Transfer",
      "type": "event"
    },
    {
      "inputs": [
        {
          "internalType": "address",
          "name": "_owner",
          "type": "address"
        }
      ],
      "name": "balanceOf",
      "outputs": [
        {
          "internalType": "uint256",
          "name": "",
          "type": "uint256"
        }
      ],
      "stateMutability": "view",
      "type": "function",
      "constant": true
    },
    {
      "inputs": [
        {
          "internalType": "uint256",
          "name": "",
          "type": "uint256"
        }
      ],
      "name": "kryptoBirdz",
      "outputs": [
        {
          "internalType": "string",
          "name": "",
          "type": "string"
        }
      ],
      "stateMutability": "view",
      "type": "function",
      "constant": true
    },
    {
      "inputs": [],
      "name": "name",
      "outputs": [
        {
          "internalType": "string",
          "name": "",
          "type": "string"
        }
      ],
      "stateMutability": "view",
      "type": "function",
      "constant": true
    },
    {
      "inputs": [
        {
          "internalType": "uint256",
          "name": "_tokenId",
          "type": "uint256"
        }
      ],
      "name": "ownerOf",
      "outputs": [
        {
          "internalType": "address",
          "name": "",
          "type": "address"
        }
      ],
      "stateMutability": "view",
      "type": "function",
      "constant": true
    },
    {
      "inputs": [
        {
          "internalType": "bytes4",
          "name": "interfaceID",
          "type": "bytes4"
        }
      ],
      "name": "supportsInterface",
      "outputs": [
        {
          "internalType": "bool",
          "name": "",
          "type": "bool"
        }
      ],
      "stateMutability": "view",
      "type": "function",
      "constant": true
    },
    {
      "inputs": [],
      "name": "symbol",
      "outputs": [
        {
          "internalType": "string",
          "name": "",
          "type": "string"
        }
      ],
      "stateMutability": "view",
      "type": "function",
      "constant": true
    },
    {
      "inputs": [
        {
          "internalType": "uint256",
          "name": "_index",
          "type": "uint256"
        }
      ],
      "name": "tokenByIndex",
      "outputs": [
        {
          "internalType": "uint256",
          "name": "",
          "type": "uint256"
        }
      ],
      "stateMutability": "view",
      "type": "function",
      "constant": true
    },
    {
      "inputs": [
        {
          "internalType": "address",
          "name": "_owner",
          "type": "address"
        },
        {
          "internalType": "uint256",
          "name": "_index",
          "type": "uint256"
        }
      ],
      "name": "tokenOfOwnerByIndex",
      "outputs": [
        {
          "internalType": "uint256",
          "name": "",
          "type": "uint256"
        }
      ],
      "stateMutability": "view",
      "type": "function",
      "constant": true
    },
    {
      "inputs": [],
      "name": "totalSupply",
      "outputs": [
        {
          "internalType": "uint256",
          "name": "",
          "type": "uint256"
        }
      ],
      "stateMutability": "view",
      "type": "function",
      "constant": true
    },
    {
      "inputs": [
        {
          "internalType": "address",
          "name": "_from",
          "type": "address"
        },
        {
          "internalType": "address",
          "name": "_to",
          "type": "address"
        },
        {
          "internalType": "uint256",
          "name": "_tokenId",
          "type": "uint256"
        }
      ],
      "name": "transferFrom",
      "outputs": [],
      "stateMutability": "nonpayable",
      "type": "function"
    },
    {
      "inputs": [
        {
          "internalType": "string",
          "name": "_kryptoBird",
          "type": "string"
        }
      ],
      "name": "mint",
      "outputs": [],
      "stateMutability": "nonpayable",
      "type": "function"
    }
  ],
  "bytecode": "0x60806040523480156200001157600080fd5b506040518060400160405280600a81526020017f4b727970746f42697264000000000000000000000000000000000000000000008152506040518060400160405280600681526020017f4b424952445a00000000000000000000000000000000000000000000000000008152508181620000ba7f01ffc9a7a5cef8baa21ed3c5c0d7e23accb804b619e9333b597f47a0d84076e26200018e640100000000026401000000009004565b620000ee7f6c5b7360b116f8fd1d2a1ccb905de5c6a9e91e31b88b8db3cd997e184f357e9f6401000000006200018e810204565b8151620001039060019060208501906200025c565b508051620001199060029060208401906200025c565b506200015291507f92d8a794d910422f7549620ed7a8f75c2c42d18032da05c61ed89586344e965e90506401000000006200018e810204565b620001867f2aa3f4710f58b303977da296b62cadae054c8971d883298d8ed6c6c0565c13c16401000000006200018e810204565b505062000358565b7fffffffff0000000000000000000000000000000000000000000000000000000080821614156200021f576040517f08c379a000000000000000000000000000000000000000000000000000000000815260206004820152601a60248201527f4572726f723a20496e76616c696420696e746572666163654964000000000000604482015260640160405180910390fd5b7fffffffff00000000000000000000000000000000000000000000000000000000166000908152602081905260409020805460ff19166001179055565b8280546200026a9062000302565b90600052602060002090601f0160209004810192826200028e5760008555620002d9565b82601f10620002a957805160ff1916838001178555620002d9565b82800160010185558215620002d9579182015b82811115620002d9578251825591602001919060010190620002bc565b50620002e7929150620002eb565b5090565b5b80821115620002e75760008155600101620002ec565b6002810460018216806200031757607f821691505b6020821081141562000352577f4e487b7100000000000000000000000000000000000000000000000000000000600052602260045260246000fd5b50919050565b610de680620003686000396000f3fe608060405234801561001057600080fd5b50600436106100c6576000357c0100000000000000000000000000000000000000000000000000000000900480634f6ccce71161008e5780634f6ccce7146101715780636352211e1461018457806370a08231146101af57806393ab6e56146101c257806395d89b41146101d5578063d85d3d27146101dd57600080fd5b806301ffc9a7146100cb57806306fdde031461012257806318160ddd1461013757806323b872dd146101495780632f745c591461015e575b600080fd5b61010d6100d9366004610acc565b7bffffffffffffffffffffffffffffffffffffffffffffffffffffffff191660009081526020819052604090205460ff1690565b60405190151581526020015b60405180910390f35b61012a6101f0565b6040516101199190610b42565b6006545b604051908152602001610119565b61015c610157366004610b91565b610282565b005b61013b61016c366004610bcd565b610292565b61013b61017f366004610bf7565b610331565b610197610192366004610bf7565b6103b3565b604051600160a060020a039091168152602001610119565b61013b6101bd366004610c10565b610421565b61012a6101d0366004610bf7565b610498565b61012a610544565b61015c6101eb366004610c44565b610553565b6060600180546101ff90610cf5565b80601f016020809104026020016040519081016040528092919081815260200182805461022b90610cf5565b80156102785780601f1061024d57610100808354040283529160200191610278565b820191906000526020600020905b81548152906001019060200180831161025b57829003601f168201915b5050505050905090565b61028d838383610652565b505050565b600061029d83610421565b8211156102f45760405160e560020a62461bcd02815260206004820152601d60248201527f6f776e657220696e646578206973206f7574206f6620626f756e64732100000060448201526064015b60405180910390fd5b600160a060020a038316600090815260086020526040902080548390811061031e5761031e610d33565b9060005260206000200154905092915050565b600061033c60065490565b82111561038e5760405160e560020a62461bcd02815260206004820152601e60248201527f676c6f62616c20696e646578206973206f7574206f6620626f756e647321000060448201526064016102eb565b600682815481106103a1576103a1610d33565b90600052602060002001549050919050565b600081815260036020526040812054600160a060020a03168061041b5760405160e560020a62461bcd02815260206004820152601d60248201527f6f776e657220616464726573732073686f756c64206e6f74206265203000000060448201526064016102eb565b92915050565b6000600160a060020a03821661047c5760405160e560020a62461bcd02815260206004820152601e60248201527f5f6f776e657220616464726573732073686f756c64206e6f742062652030000060448201526064016102eb565b50600160a060020a031660009081526004602052604090205490565b600a81815481106104a857600080fd5b9060005260206000200160009150905080546104c390610cf5565b80601f01602080910402602001604051908101604052809291908181526020018280546104ef90610cf5565b801561053c5780601f106105115761010080835404028352916020019161053c565b820191906000526020600020905b81548152906001019060200180831161051f57829003601f168201915b505050505081565b6060600280546101ff90610cf5565b600b816040516105639190610d4c565b9081526040519081900360200190205460ff16156105ec5760405160e560020a62461bcd02815260206004820152602160248201527f4572726f723a205f6b727970746f4269726420616c726561647920657869737460448201527f730000000000000000000000000000000000000000000000000000000000000060648201526084016102eb565b600a8054600181018255600091909152815161062f917fc65a7bb8d6351c1cf70c95a316cc6a92839c986682d98bc35f958f4883f9d2a801906020840190610a33565b50600a5460009061064290600190610d81565b905061064e3382610802565b5050565b600160a060020a0382166106ab5760405160e560020a62461bcd02815260206004820152601f60248201527f5472616e7366657272696e6720746f2061207a65726f20616464726573732e0060448201526064016102eb565b82600160a060020a03166106be826103b3565b600160a060020a03161461073d5760405160e560020a62461bcd02815260206004820152603760248201527f547279696e6720746f207472616e73666572206120746f6b656e20746861742060448201527f746865206164647265737320646f65736e2774206f776e00000000000000000060648201526084016102eb565b600160a060020a0383166000908152600460205260408120805460019290610766908490610d81565b9091555050600160a060020a0382166000908152600460205260408120805460019290610794908490610d98565b9091555050600081815260036020526040808220805473ffffffffffffffffffffffffffffffffffffffff1916600160a060020a0386811691821790925591518493918716917fddf252ad1be2c89b69c2b068fc378daa952ba7f163c4a11628f55a4df523b3ef91a4505050565b61080c8282610891565b61085481600680546000838152600760205260408120829055600182018355919091527ff652222313e28459528d920b65115c16c04f3efc82aaedc97be59f3f377c0d3f0155565b600160a060020a03919091166000908152600860209081526040808320805460018101825581855283852001859055549383526009909152902055565b600160a060020a0382166109105760405160e560020a62461bcd02815260206004820152602160248201527f4552433732313a206d696e74696e6720746f2061207a65726f2061646472657360448201527f730000000000000000000000000000000000000000000000000000000000000060648201526084016102eb565b600081815260036020526040902054600160a060020a03161561099e5760405160e560020a62461bcd02815260206004820152602560248201527f4552433732313a20746f6b656e20616c7265616479206d696e7465642028657860448201527f697374732900000000000000000000000000000000000000000000000000000060648201526084016102eb565b6000818152600360209081526040808320805473ffffffffffffffffffffffffffffffffffffffff1916600160a060020a0387169081179091558352600490915281208054600192906109f2908490610d98565b90915550506040518190600160a060020a038416906000907fddf252ad1be2c89b69c2b068fc378daa952ba7f163c4a11628f55a4df523b3ef908290a45050565b828054610a3f90610cf5565b90600052602060002090601f016020900481019282610a615760008555610aa7565b82601f10610a7a57805160ff1916838001178555610aa7565b82800160010185558215610aa7579182015b82811115610aa7578251825591602001919060010190610a8c565b50610ab3929150610ab7565b5090565b5b80821115610ab35760008155600101610ab8565b600060208284031215610ade57600080fd5b81357bffffffffffffffffffffffffffffffffffffffffffffffffffffffff1981168114610b0b57600080fd5b9392505050565b60005b83811015610b2d578181015183820152602001610b15565b83811115610b3c576000848401525b50505050565b6020815260008251806020840152610b61816040850160208701610b12565b601f01601f19169190910160400192915050565b8035600160a060020a0381168114610b8c57600080fd5b919050565b600080600060608486031215610ba657600080fd5b610baf84610b75565b9250610bbd60208501610b75565b9150604084013590509250925092565b60008060408385031215610be057600080fd5b610be983610b75565b946020939093013593505050565b600060208284031215610c0957600080fd5b5035919050565b600060208284031215610c2257600080fd5b610b0b82610b75565b60e060020a634e487b7102600052604160045260246000fd5b600060208284031215610c5657600080fd5b813567ffffffffffffffff80821115610c6e57600080fd5b818401915084601f830112610c8257600080fd5b813581811115610c9457610c94610c2b565b604051601f8201601f19908116603f01168101908382118183101715610cbc57610cbc610c2b565b81604052828152876020848701011115610cd557600080fd5b826020860160208301376000928101602001929092525095945050505050565b600281046001821680610d0957607f821691505b60208210811415610d2d5760e060020a634e487b7102600052602260045260246000fd5b50919050565b60e060020a634e487b7102600052603260045260246000fd5b60008251610d5e818460208701610b12565b9190910192915050565b60e060020a634e487b7102600052601160045260246000fd5b600082821015610d9357610d93610d68565b500390565b60008219821115610dab57610dab610d68565b50019056fea26469706673582212200de704085a63fb3143cbe61503b1a28603f3fa79e4e84230192962c28525151964736f6c634300080b0033",
  "immutableReferences": {},
  "source": "// SPDX-License-Identifier: MIT\r\npragma solidity ^0.8.11;\r\n\r\nimport './ERC721Connector.sol';\r\n\r\n// inherit all contracts from ERC721Connector\r\ncontract KryptoBird is ERC721Connector {\r\n\r\n    // array to store our nfts\r\n    string[] public kryptoBirdz;\r\n\r\n    // check if the tokenId exists\r\n    // save the imgs in a mapping structure\r\n    mapping(string => bool) _kryptoBirdzExists;\r\n\r\n    function mint(string memory _kryptoBird) public {\r\n        // check if the _kryptoBird already exists / has been minted\r\n        require(!_kryptoBirdzExists[_kryptoBird], \"Error: _kryptoBird already exists\");\r\n        // uint256\t_id = kryptoBirdz.push(_kryptoBird); deprecated\r\n        kryptoBirdz.push(_kryptoBird);\r\n        uint _id = kryptoBirdz.length - 1;\r\n\r\n        // use the function from ERC721\r\n        _mint(msg.sender, _id);\r\n    }\r\n   \r\n    constructor() ERC721Connector('KryptoBird','KBIRDZ') {\r\n       \r\n    }\r\n}\r\n",
  "sourcePath": "F:\\Crypto Courses\\The Complete NFT Web Development Course - Zero To Expert\\Project NFT\\nft-marketplace-starter-kit\\src\\contracts\\KryptoBirdz.sol",
  "compiler": {
    "name": "solc",
    "version": "0.8.11+commit.d7f03943.Emscripten.clang"
  },
  "schemaVersion": "3.4.5",
  "updatedAt": "2022-03-05T17:36:39.885Z",
  "networkType": "ethereum",
  "devdoc": {
    "kind": "dev",
    "methods": {
      "balanceOf(address)": {
        "details": "NFTs assigned to the zero address are considered invalid, and this  function throws for queries about the zero address.",
        "params": {
          "_owner": "An address for whom to query the balance"
        },
        "returns": {
          "_0": "The number of NFTs owned by `_owner`, possibly zero"
        }
      },
      "ownerOf(uint256)": {
        "details": "NFTs assigned to zero address are considered invalid, and queries  about them do throw.",
        "params": {
          "_tokenId": "The identifier for an NFT"
        },
        "returns": {
          "_0": "The address of the owner of the NFT"
        }
      },
      "supportsInterface(bytes4)": {
        "details": "Interface identification is specified in ERC-165. This function  uses less than 30,000 gas.",
        "params": {
          "interfaceID": "The interface identifier, as specified in ERC-165"
        },
        "returns": {
          "_0": "`true` if the contract implements `interfaceID` and  `interfaceID` is not 0xffffffff, `false` otherwise"
        }
      },
      "tokenByIndex(uint256)": {
        "details": "Throws if `_index` >= `totalSupply()`.",
        "params": {
          "_index": "A counter less than `totalSupply()`"
        },
        "returns": {
          "_0": "The token identifier for the `_index`th NFT,  (sort order not specified)"
        }
      },
      "tokenOfOwnerByIndex(address,uint256)": {
        "details": "Throws if `_index` >= `balanceOf(_owner)` or if  `_owner` is the zero address, representing invalid NFTs.",
        "params": {
          "_index": "A counter less than `balanceOf(_owner)`",
          "_owner": "An address where we are interested in NFTs owned by them"
        },
        "returns": {
          "_0": "The token identifier for the `_index`th NFT assigned to `_owner`,   (sort order not specified)"
        }
      },
      "totalSupply()": {
        "returns": {
          "_0": "A count of valid NFTs tracked by this contract, where each one of  them has an assigned and queryable owner not equal to the zero address"
        }
      },
      "transferFrom(address,address,uint256)": {
        "details": "Throws unless `msg.sender` is the current owner, an authorized  operator, or the approved address for this NFT. Throws if `_from` is  not the current owner. Throws if `_to` is the zero address. Throws if  `_tokenId` is not a valid NFT.",
        "params": {
          "_from": "The current owner of the NFT",
          "_to": "The new owner",
          "_tokenId": "The NFT to transfer"
        }
      }
    },
    "version": 1
  },
  "userdoc": {
    "kind": "user",
    "methods": {
      "balanceOf(address)": {
        "notice": "Count all NFTs assigned to an owner"
      },
      "name()": {
        "notice": "A descriptive name for a collection of NFTs in this contract"
      },
      "ownerOf(uint256)": {
        "notice": "Find the owner of an NFT"
      },
      "supportsInterface(bytes4)": {
        "notice": "Query if a contract implements an interface"
      },
      "symbol()": {
        "notice": "An abbreviated name for NFTs in this contract"
      },
      "tokenByIndex(uint256)": {
        "notice": "Enumerate valid NFTs"
      },
      "tokenOfOwnerByIndex(address,uint256)": {
        "notice": "Enumerate NFTs assigned to an owner"
      },
      "totalSupply()": {
        "notice": "Count NFTs tracked by this contract"
      },
      "transferFrom(address,address,uint256)": {
        "notice": "Transfer ownership of an NFT -- THE CALLER IS RESPONSIBLE  TO CONFIRM THAT `_to` IS CAPABLE OF RECEIVING NFTS OR ELSE  THEY MAY BE PERMANENTLY LOST"
      }
    },
    "version": 1
  }
}