{
  "contractName": "KryptoBird",
  "abi": [
    {
      "inputs": [],
      "stateMutability": "nonpayable",
      "type": "constructor"
    },
    {
      "anonymous": false,
      "inputs": [
        {
          "indexed": true,
          "internalType": "address",
          "name": "from",
          "type": "address"
        },
        {
          "indexed": true,
          "internalType": "address",
          "name": "to",
          "type": "address"
        },
        {
          "indexed": true,
          "internalType": "uint256",
          "name": "tokenId",
          "type": "uint256"
        }
      ],
      "name": "Transfer",
      "type": "event"
    },
    {
      "inputs": [
        {
          "internalType": "address",
          "name": "_owner",
          "type": "address"
        }
      ],
      "name": "balanceOf",
      "outputs": [
        {
          "internalType": "uint256",
          "name": "",
          "type": "uint256"
        }
      ],
      "stateMutability": "view",
      "type": "function",
      "constant": true
    },
    {
      "inputs": [
        {
          "internalType": "uint256",
          "name": "",
          "type": "uint256"
        }
      ],
      "name": "kryptoBirdz",
      "outputs": [
        {
          "internalType": "string",
          "name": "",
          "type": "string"
        }
      ],
      "stateMutability": "view",
      "type": "function",
      "constant": true
    },
    {
      "inputs": [],
      "name": "name",
      "outputs": [
        {
          "internalType": "string",
          "name": "",
          "type": "string"
        }
      ],
      "stateMutability": "view",
      "type": "function",
      "constant": true
    },
    {
      "inputs": [
        {
          "internalType": "uint256",
          "name": "_tokenId",
          "type": "uint256"
        }
      ],
      "name": "ownerOf",
      "outputs": [
        {
          "internalType": "address",
          "name": "",
          "type": "address"
        }
      ],
      "stateMutability": "view",
      "type": "function",
      "constant": true
    },
    {
      "inputs": [],
      "name": "symbol",
      "outputs": [
        {
          "internalType": "string",
          "name": "",
          "type": "string"
        }
      ],
      "stateMutability": "view",
      "type": "function",
      "constant": true
    },
    {
      "inputs": [
        {
          "internalType": "string",
          "name": "_kryptoBird",
          "type": "string"
        }
      ],
      "name": "mint",
      "outputs": [],
      "stateMutability": "nonpayable",
      "type": "function"
    }
  ],
  "bytecode": "0x608060405234801561001057600080fd5b50604080518082018252600a81527f4b727970746f426972640000000000000000000000000000000000000000000060208083019182528351808501909452600684527f4b424952445a00000000000000000000000000000000000000000000000000009084015281519192918391839161008d916000916100ab565b5080516100a19060019060208401906100ab565b5050505050610198565b8280546100b790610144565b90600052602060002090601f0160209004810192826100d9576000855561011f565b82601f106100f257805160ff191683800117855561011f565b8280016001018555821561011f579182015b8281111561011f578251825591602001919060010190610104565b5061012b92915061012f565b5090565b5b8082111561012b5760008155600101610130565b60028104600182168061015857607f821691505b60208210811415610192577f4e487b7100000000000000000000000000000000000000000000000000000000600052602260045260246000fd5b50919050565b61091e806101a76000396000f3fe608060405234801561001057600080fd5b506004361061007e577c0100000000000000000000000000000000000000000000000000000000600035046306fdde0381146100835780636352211e146100a157806370a08231146100cc57806393ab6e56146100ed57806395d89b4114610100578063d85d3d2714610108575b600080fd5b61008b61011d565b60405161009891906106be565b60405180910390f35b6100b46100af3660046106f1565b6101af565b604051600160a060020a039091168152602001610098565b6100df6100da36600461070a565b610222565b604051908152602001610098565b61008b6100fb3660046106f1565b610299565b61008b610345565b61011b610116366004610769565b610354565b005b60606000805461012c9061081a565b80601f01602080910402602001604051908101604052809291908181526020018280546101589061081a565b80156101a55780601f1061017a576101008083540402835291602001916101a5565b820191906000526020600020905b81548152906001019060200180831161018857829003601f168201915b5050505050905090565b600081815260026020526040812054600160a060020a03168061021c5760405160e560020a62461bcd02815260206004820152601d60248201527f6f776e657220616464726573732073686f756c64206e6f74206265203000000060448201526064015b60405180910390fd5b92915050565b6000600160a060020a03821661027d5760405160e560020a62461bcd02815260206004820152601e60248201527f5f6f776e657220616464726573732073686f756c64206e6f74206265203000006044820152606401610213565b50600160a060020a031660009081526003602052604090205490565b600481815481106102a957600080fd5b9060005260206000200160009150905080546102c49061081a565b80601f01602080910402602001604051908101604052809291908181526020018280546102f09061081a565b801561033d5780601f106103125761010080835404028352916020019161033d565b820191906000526020600020905b81548152906001019060200180831161032057829003601f168201915b505050505081565b60606001805461012c9061081a565b600581604051610364919061086e565b9081526040519081900360200190205460ff16156103ed5760405160e560020a62461bcd02815260206004820152602160248201527f4572726f723a205f6b727970746f4269726420616c726561647920657869737460448201527f73000000000000000000000000000000000000000000000000000000000000006064820152608401610213565b600480546001810182556000919091528151610430917f8a35acfbc15ff81a39ae7d344fd709f28e8600b4aa8c65c6b64bfe7fe36bd19b019060208401906105f5565b50600454600090610443906001906108b9565b905061044f3382610453565b5050565b600160a060020a0382166104d25760405160e560020a62461bcd02815260206004820152602160248201527f4552433732313a206d696e74696e6720746f2061207a65726f2061646472657360448201527f73000000000000000000000000000000000000000000000000000000000000006064820152608401610213565b600081815260026020526040902054600160a060020a0316156105605760405160e560020a62461bcd02815260206004820152602560248201527f4552433732313a20746f6b656e20616c7265616479206d696e7465642028657860448201527f69737473290000000000000000000000000000000000000000000000000000006064820152608401610213565b6000818152600260209081526040808320805473ffffffffffffffffffffffffffffffffffffffff1916600160a060020a0387169081179091558352600390915281208054600192906105b49084906108d0565b90915550506040518190600160a060020a038416906000907fddf252ad1be2c89b69c2b068fc378daa952ba7f163c4a11628f55a4df523b3ef908290a45050565b8280546106019061081a565b90600052602060002090601f0160209004810192826106235760008555610669565b82601f1061063c57805160ff1916838001178555610669565b82800160010185558215610669579182015b8281111561066957825182559160200191906001019061064e565b50610675929150610679565b5090565b5b80821115610675576000815560010161067a565b60005b838110156106a9578181015183820152602001610691565b838111156106b8576000848401525b50505050565b60208152600082518060208401526106dd81604085016020870161068e565b601f01601f19169190910160400192915050565b60006020828403121561070357600080fd5b5035919050565b60006020828403121561071c57600080fd5b8135600160a060020a038116811461073357600080fd5b9392505050565b7f4e487b7100000000000000000000000000000000000000000000000000000000600052604160045260246000fd5b60006020828403121561077b57600080fd5b813567ffffffffffffffff8082111561079357600080fd5b818401915084601f8301126107a757600080fd5b8135818111156107b9576107b961073a565b604051601f8201601f19908116603f011681019083821181831017156107e1576107e161073a565b816040528281528760208487010111156107fa57600080fd5b826020860160208301376000928101602001929092525095945050505050565b60028104600182168061082e57607f821691505b60208210811415610868577f4e487b7100000000000000000000000000000000000000000000000000000000600052602260045260246000fd5b50919050565b6000825161088081846020870161068e565b9190910192915050565b7f4e487b7100000000000000000000000000000000000000000000000000000000600052601160045260246000fd5b6000828210156108cb576108cb61088a565b500390565b600082198211156108e3576108e361088a565b50019056fea2646970667358221220811465bc670aaf0fe59c9e711c7ef4170aea37072c84eef019348387bfbbbc9764736f6c634300080b0033",
  "immutableReferences": {},
  "source": "// SPDX-License-Identifier: MIT\r\npragma solidity ^0.8.11;\r\n\r\nimport './ERC721Connector.sol';\r\n\r\n// inherit all contracts from ERC721Connector\r\ncontract KryptoBird is ERC721Connector {\r\n\r\n    // array to store our nfts\r\n    string[] public kryptoBirdz;\r\n\r\n    // check if the tokenId exists\r\n    // save the imgs in a mapping structure\r\n    mapping(string => bool) _kryptoBirdzExists;\r\n\r\n    function mint(string memory _kryptoBird) public {\r\n        // check if the _kryptoBird already exists / has been minted\r\n        require(!_kryptoBirdzExists[_kryptoBird], \"Error: _kryptoBird already exists\");\r\n        // uint256\t_id = kryptoBirdz.push(_kryptoBird); deprecated\r\n        kryptoBirdz.push(_kryptoBird);\r\n        uint _id = kryptoBirdz.length - 1;\r\n\r\n        // use the function from ERC721\r\n        _mint(msg.sender, _id);\r\n    }\r\n   \r\n    constructor() ERC721Connector('KryptoBird','KBIRDZ') {\r\n       \r\n    }\r\n}\r\n",
  "sourcePath": "F:\\Crypto Courses\\The Complete NFT Web Development Course - Zero To Expert\\Project NFT\\nft-marketplace-starter-kit\\src\\contracts\\KryptoBirdz.sol",
  "compiler": {
    "name": "solc",
    "version": "0.8.11+commit.d7f03943.Emscripten.clang"
  },
  "schemaVersion": "3.4.5",
  "updatedAt": "2022-02-25T15:36:08.916Z",
  "networkType": "ethereum",
  "devdoc": {
    "kind": "dev",
    "methods": {
      "balanceOf(address)": {
        "details": "NFTs assigned to the zero address are considered invalid, and this  function throws for queries about the zero address.",
        "params": {
          "_owner": "An address for whom to query the balance"
        },
        "returns": {
          "_0": "The number of NFTs owned by `_owner`, possibly zero"
        }
      },
      "ownerOf(uint256)": {
        "details": "NFTs assigned to zero address are considered invalid, and queries  about them do throw.",
        "params": {
          "_tokenId": "The identifier for an NFT"
        },
        "returns": {
          "_0": "The address of the owner of the NFT"
        }
      }
    },
    "version": 1
  },
  "userdoc": {
    "kind": "user",
    "methods": {
      "balanceOf(address)": {
        "notice": "Count all NFTs assigned to an owner"
      },
      "ownerOf(uint256)": {
        "notice": "Find the owner of an NFT"
      }
    },
    "version": 1
  }
}