{
  "contractName": "KryptoBird",
  "abi": [
    {
      "inputs": [],
      "stateMutability": "nonpayable",
      "type": "constructor"
    },
    {
      "anonymous": false,
      "inputs": [
        {
          "indexed": true,
          "internalType": "address",
          "name": "from",
          "type": "address"
        },
        {
          "indexed": true,
          "internalType": "address",
          "name": "to",
          "type": "address"
        },
        {
          "indexed": true,
          "internalType": "uint256",
          "name": "tokenId",
          "type": "uint256"
        }
      ],
      "name": "Transfer",
      "type": "event"
    },
    {
      "inputs": [
        {
          "internalType": "address",
          "name": "_owner",
          "type": "address"
        }
      ],
      "name": "balanceOf",
      "outputs": [
        {
          "internalType": "uint256",
          "name": "",
          "type": "uint256"
        }
      ],
      "stateMutability": "view",
      "type": "function",
      "constant": true
    },
    {
      "inputs": [
        {
          "internalType": "uint256",
          "name": "",
          "type": "uint256"
        }
      ],
      "name": "kryptoBirdz",
      "outputs": [
        {
          "internalType": "string",
          "name": "",
          "type": "string"
        }
      ],
      "stateMutability": "view",
      "type": "function",
      "constant": true
    },
    {
      "inputs": [],
      "name": "name",
      "outputs": [
        {
          "internalType": "string",
          "name": "",
          "type": "string"
        }
      ],
      "stateMutability": "view",
      "type": "function",
      "constant": true
    },
    {
      "inputs": [
        {
          "internalType": "uint256",
          "name": "_tokenId",
          "type": "uint256"
        }
      ],
      "name": "ownerOf",
      "outputs": [
        {
          "internalType": "address",
          "name": "",
          "type": "address"
        }
      ],
      "stateMutability": "view",
      "type": "function",
      "constant": true
    },
    {
      "inputs": [],
      "name": "symbol",
      "outputs": [
        {
          "internalType": "string",
          "name": "",
          "type": "string"
        }
      ],
      "stateMutability": "view",
      "type": "function",
      "constant": true
    },
    {
      "inputs": [
        {
          "internalType": "uint256",
          "name": "_index",
          "type": "uint256"
        }
      ],
      "name": "tokenByIndex",
      "outputs": [
        {
          "internalType": "uint256",
          "name": "",
          "type": "uint256"
        }
      ],
      "stateMutability": "view",
      "type": "function",
      "constant": true
    },
    {
      "inputs": [
        {
          "internalType": "address",
          "name": "_owner",
          "type": "address"
        },
        {
          "internalType": "uint256",
          "name": "_index",
          "type": "uint256"
        }
      ],
      "name": "tokenOfOwnerByIndex",
      "outputs": [
        {
          "internalType": "uint256",
          "name": "",
          "type": "uint256"
        }
      ],
      "stateMutability": "view",
      "type": "function",
      "constant": true
    },
    {
      "inputs": [],
      "name": "totalSupply",
      "outputs": [
        {
          "internalType": "uint256",
          "name": "",
          "type": "uint256"
        }
      ],
      "stateMutability": "view",
      "type": "function",
      "constant": true
    },
    {
      "inputs": [
        {
          "internalType": "address",
          "name": "_from",
          "type": "address"
        },
        {
          "internalType": "address",
          "name": "_to",
          "type": "address"
        },
        {
          "internalType": "uint256",
          "name": "_tokenId",
          "type": "uint256"
        }
      ],
      "name": "transferFrom",
      "outputs": [],
      "stateMutability": "payable",
      "type": "function",
      "payable": true
    },
    {
      "inputs": [
        {
          "internalType": "string",
          "name": "_kryptoBird",
          "type": "string"
        }
      ],
      "name": "mint",
      "outputs": [],
      "stateMutability": "nonpayable",
      "type": "function"
    }
  ],
  "bytecode": "0x60806040523480156200001157600080fd5b50604080518082018252600a81527f4b727970746f426972640000000000000000000000000000000000000000000060208083019182528351808501909452600684527f4b424952445a0000000000000000000000000000000000000000000000000000908401528151919291839183916200009091600091620000b1565b508051620000a6906001906020840190620000b1565b5050505050620001ad565b828054620000bf9062000157565b90600052602060002090601f016020900481019282620000e357600085556200012e565b82601f10620000fe57805160ff19168380011785556200012e565b828001600101855582156200012e579182015b828111156200012e57825182559160200191906001019062000111565b506200013c92915062000140565b5090565b5b808211156200013c576000815560010162000141565b6002810460018216806200016c57607f821691505b60208210811415620001a7577f4e487b7100000000000000000000000000000000000000000000000000000000600052602260045260246000fd5b50919050565b610db680620001bd6000396000f3fe6080604052600436106100ae576000357c0100000000000000000000000000000000000000000000000000000000900480636352211e116100765780636352211e1461015257806370a082311461018a57806393ab6e56146101aa57806395d89b41146101ca578063d85d3d27146101df57600080fd5b806306fdde03146100b357806318160ddd146100de57806323b872dd146100fd5780632f745c59146101125780634f6ccce714610132575b600080fd5b3480156100bf57600080fd5b506100c86101ff565b6040516100d59190610b0b565b60405180910390f35b3480156100ea57600080fd5b506005545b6040519081526020016100d5565b61011061010b366004610b5a565b610291565b005b34801561011e57600080fd5b506100ef61012d366004610b96565b6102a1565b34801561013e57600080fd5b506100ef61014d366004610bc0565b610340565b34801561015e57600080fd5b5061017261016d366004610bc0565b6103c2565b604051600160a060020a0390911681526020016100d5565b34801561019657600080fd5b506100ef6101a5366004610bd9565b610430565b3480156101b657600080fd5b506100c86101c5366004610bc0565b6104a7565b3480156101d657600080fd5b506100c8610553565b3480156101eb57600080fd5b506101106101fa366004610c14565b610562565b60606000805461020e90610cc5565b80601f016020809104026020016040519081016040528092919081815260200182805461023a90610cc5565b80156102875780601f1061025c57610100808354040283529160200191610287565b820191906000526020600020905b81548152906001019060200180831161026a57829003601f168201915b5050505050905090565b61029c838383610661565b505050565b60006102ac83610430565b8211156103035760405160e560020a62461bcd02815260206004820152601d60248201527f6f776e657220696e646578206973206f7574206f6620626f756e64732100000060448201526064015b60405180910390fd5b600160a060020a038316600090815260076020526040902080548390811061032d5761032d610d03565b9060005260206000200154905092915050565b600061034b60055490565b82111561039d5760405160e560020a62461bcd02815260206004820152601e60248201527f676c6f62616c20696e646578206973206f7574206f6620626f756e647321000060448201526064016102fa565b600582815481106103b0576103b0610d03565b90600052602060002001549050919050565b600081815260026020526040812054600160a060020a03168061042a5760405160e560020a62461bcd02815260206004820152601d60248201527f6f776e657220616464726573732073686f756c64206e6f74206265203000000060448201526064016102fa565b92915050565b6000600160a060020a03821661048b5760405160e560020a62461bcd02815260206004820152601e60248201527f5f6f776e657220616464726573732073686f756c64206e6f742062652030000060448201526064016102fa565b50600160a060020a031660009081526003602052604090205490565b600981815481106104b757600080fd5b9060005260206000200160009150905080546104d290610cc5565b80601f01602080910402602001604051908101604052809291908181526020018280546104fe90610cc5565b801561054b5780601f106105205761010080835404028352916020019161054b565b820191906000526020600020905b81548152906001019060200180831161052e57829003601f168201915b505050505081565b60606001805461020e90610cc5565b600a816040516105729190610d1c565b9081526040519081900360200190205460ff16156105fb5760405160e560020a62461bcd02815260206004820152602160248201527f4572726f723a205f6b727970746f4269726420616c726561647920657869737460448201527f730000000000000000000000000000000000000000000000000000000000000060648201526084016102fa565b60098054600181018255600091909152815161063e917f6e1540171b6c0c960b71a7020d9f60077f6af931a8bbf590da0223dacf75c7af01906020840190610a42565b5060095460009061065190600190610d51565b905061065d3382610811565b5050565b600160a060020a0382166106ba5760405160e560020a62461bcd02815260206004820152601f60248201527f5472616e7366657272696e6720746f2061207a65726f20616464726573732e0060448201526064016102fa565b82600160a060020a03166106cd826103c2565b600160a060020a03161461074c5760405160e560020a62461bcd02815260206004820152603760248201527f547279696e6720746f207472616e73666572206120746f6b656e20746861742060448201527f746865206164647265737320646f65736e2774206f776e00000000000000000060648201526084016102fa565b600160a060020a0383166000908152600360205260408120805460019290610775908490610d51565b9091555050600160a060020a03821660009081526003602052604081208054600192906107a3908490610d68565b9091555050600081815260026020526040808220805473ffffffffffffffffffffffffffffffffffffffff1916600160a060020a0386811691821790925591518493918716917fddf252ad1be2c89b69c2b068fc378daa952ba7f163c4a11628f55a4df523b3ef91a4505050565b61081b82826108a0565b61086381600580546000838152600660205260408120829055600182018355919091527f036b6384b5eca791c62761152d0c79bb0604c104a5fb6f4eb0703f3154bb3db00155565b600160a060020a03919091166000908152600760209081526040808320805460018101825581855283852001859055549383526008909152902055565b600160a060020a03821661091f5760405160e560020a62461bcd02815260206004820152602160248201527f4552433732313a206d696e74696e6720746f2061207a65726f2061646472657360448201527f730000000000000000000000000000000000000000000000000000000000000060648201526084016102fa565b600081815260026020526040902054600160a060020a0316156109ad5760405160e560020a62461bcd02815260206004820152602560248201527f4552433732313a20746f6b656e20616c7265616479206d696e7465642028657860448201527f697374732900000000000000000000000000000000000000000000000000000060648201526084016102fa565b6000818152600260209081526040808320805473ffffffffffffffffffffffffffffffffffffffff1916600160a060020a038716908117909155835260039091528120805460019290610a01908490610d68565b90915550506040518190600160a060020a038416906000907fddf252ad1be2c89b69c2b068fc378daa952ba7f163c4a11628f55a4df523b3ef908290a45050565b828054610a4e90610cc5565b90600052602060002090601f016020900481019282610a705760008555610ab6565b82601f10610a8957805160ff1916838001178555610ab6565b82800160010185558215610ab6579182015b82811115610ab6578251825591602001919060010190610a9b565b50610ac2929150610ac6565b5090565b5b80821115610ac25760008155600101610ac7565b60005b83811015610af6578181015183820152602001610ade565b83811115610b05576000848401525b50505050565b6020815260008251806020840152610b2a816040850160208701610adb565b601f01601f19169190910160400192915050565b8035600160a060020a0381168114610b5557600080fd5b919050565b600080600060608486031215610b6f57600080fd5b610b7884610b3e565b9250610b8660208501610b3e565b9150604084013590509250925092565b60008060408385031215610ba957600080fd5b610bb283610b3e565b946020939093013593505050565b600060208284031215610bd257600080fd5b5035919050565b600060208284031215610beb57600080fd5b610bf482610b3e565b9392505050565b60e060020a634e487b7102600052604160045260246000fd5b600060208284031215610c2657600080fd5b813567ffffffffffffffff80821115610c3e57600080fd5b818401915084601f830112610c5257600080fd5b813581811115610c6457610c64610bfb565b604051601f8201601f19908116603f01168101908382118183101715610c8c57610c8c610bfb565b81604052828152876020848701011115610ca557600080fd5b826020860160208301376000928101602001929092525095945050505050565b600281046001821680610cd957607f821691505b60208210811415610cfd5760e060020a634e487b7102600052602260045260246000fd5b50919050565b60e060020a634e487b7102600052603260045260246000fd5b60008251610d2e818460208701610adb565b9190910192915050565b60e060020a634e487b7102600052601160045260246000fd5b600082821015610d6357610d63610d38565b500390565b60008219821115610d7b57610d7b610d38565b50019056fea2646970667358221220542d26867aa823b34bc463b84c19ba0fc3c62701c377b58a15924a605b3cf73664736f6c634300080b0033",
  "immutableReferences": {},
  "source": "// SPDX-License-Identifier: MIT\r\npragma solidity ^0.8.11;\r\n\r\nimport './ERC721Connector.sol';\r\n\r\n// inherit all contracts from ERC721Connector\r\ncontract KryptoBird is ERC721Connector {\r\n\r\n    // array to store our nfts\r\n    string[] public kryptoBirdz;\r\n\r\n    // check if the tokenId exists\r\n    // save the imgs in a mapping structure\r\n    mapping(string => bool) _kryptoBirdzExists;\r\n\r\n    function mint(string memory _kryptoBird) public {\r\n        // check if the _kryptoBird already exists / has been minted\r\n        require(!_kryptoBirdzExists[_kryptoBird], \"Error: _kryptoBird already exists\");\r\n        // uint256\t_id = kryptoBirdz.push(_kryptoBird); deprecated\r\n        kryptoBirdz.push(_kryptoBird);\r\n        uint _id = kryptoBirdz.length - 1;\r\n\r\n        // use the function from ERC721\r\n        _mint(msg.sender, _id);\r\n    }\r\n   \r\n    constructor() ERC721Connector('KryptoBird','KBIRDZ') {\r\n       \r\n    }\r\n}\r\n",
  "sourcePath": "F:\\Crypto Courses\\The Complete NFT Web Development Course - Zero To Expert\\Project NFT\\nft-marketplace-starter-kit\\src\\contracts\\KryptoBirdz.sol",
  "compiler": {
    "name": "solc",
    "version": "0.8.11+commit.d7f03943.Emscripten.clang"
  },
  "schemaVersion": "3.4.5",
  "updatedAt": "2022-03-01T10:23:04.535Z",
  "networkType": "ethereum",
  "devdoc": {
    "kind": "dev",
    "methods": {
      "balanceOf(address)": {
        "details": "NFTs assigned to the zero address are considered invalid, and this  function throws for queries about the zero address.",
        "params": {
          "_owner": "An address for whom to query the balance"
        },
        "returns": {
          "_0": "The number of NFTs owned by `_owner`, possibly zero"
        }
      },
      "ownerOf(uint256)": {
        "details": "NFTs assigned to zero address are considered invalid, and queries  about them do throw.",
        "params": {
          "_tokenId": "The identifier for an NFT"
        },
        "returns": {
          "_0": "The address of the owner of the NFT"
        }
      },
      "tokenByIndex(uint256)": {
        "details": "Throws if `_index` >= `totalSupply()`.",
        "params": {
          "_index": "A counter less than `totalSupply()`"
        },
        "returns": {
          "_0": "The token identifier for the `_index`th NFT,  (sort order not specified)"
        }
      },
      "tokenOfOwnerByIndex(address,uint256)": {
        "details": "Throws if `_index` >= `balanceOf(_owner)` or if  `_owner` is the zero address, representing invalid NFTs.",
        "params": {
          "_index": "A counter less than `balanceOf(_owner)`",
          "_owner": "An address where we are interested in NFTs owned by them"
        },
        "returns": {
          "_0": "The token identifier for the `_index`th NFT assigned to `_owner`,   (sort order not specified)"
        }
      },
      "totalSupply()": {
        "returns": {
          "_0": "A count of valid NFTs tracked by this contract, where each one of  them has an assigned and queryable owner not equal to the zero address"
        }
      }
    },
    "version": 1
  },
  "userdoc": {
    "kind": "user",
    "methods": {
      "balanceOf(address)": {
        "notice": "Count all NFTs assigned to an owner"
      },
      "ownerOf(uint256)": {
        "notice": "Find the owner of an NFT"
      },
      "tokenByIndex(uint256)": {
        "notice": "Enumerate valid NFTs"
      },
      "tokenOfOwnerByIndex(address,uint256)": {
        "notice": "Enumerate NFTs assigned to an owner"
      },
      "totalSupply()": {
        "notice": "Count NFTs tracked by this contract"
      }
    },
    "version": 1
  }
}