{
  "contractName": "KryptoBird",
  "abi": [
    {
      "inputs": [],
      "stateMutability": "nonpayable",
      "type": "constructor"
    },
    {
      "anonymous": false,
      "inputs": [
        {
          "indexed": true,
          "internalType": "address",
          "name": "from",
          "type": "address"
        },
        {
          "indexed": true,
          "internalType": "address",
          "name": "to",
          "type": "address"
        },
        {
          "indexed": true,
          "internalType": "uint256",
          "name": "tokenId",
          "type": "uint256"
        }
      ],
      "name": "Transfer",
      "type": "event"
    },
    {
      "inputs": [
        {
          "internalType": "address",
          "name": "_owner",
          "type": "address"
        }
      ],
      "name": "balanceOf",
      "outputs": [
        {
          "internalType": "uint256",
          "name": "",
          "type": "uint256"
        }
      ],
      "stateMutability": "view",
      "type": "function",
      "constant": true
    },
    {
      "inputs": [
        {
          "internalType": "uint256",
          "name": "",
          "type": "uint256"
        }
      ],
      "name": "kryptoBirdz",
      "outputs": [
        {
          "internalType": "string",
          "name": "",
          "type": "string"
        }
      ],
      "stateMutability": "view",
      "type": "function",
      "constant": true
    },
    {
      "inputs": [],
      "name": "name",
      "outputs": [
        {
          "internalType": "string",
          "name": "",
          "type": "string"
        }
      ],
      "stateMutability": "view",
      "type": "function",
      "constant": true
    },
    {
      "inputs": [
        {
          "internalType": "uint256",
          "name": "_tokenId",
          "type": "uint256"
        }
      ],
      "name": "ownerOf",
      "outputs": [
        {
          "internalType": "address",
          "name": "",
          "type": "address"
        }
      ],
      "stateMutability": "view",
      "type": "function",
      "constant": true
    },
    {
      "inputs": [],
      "name": "symbol",
      "outputs": [
        {
          "internalType": "string",
          "name": "",
          "type": "string"
        }
      ],
      "stateMutability": "view",
      "type": "function",
      "constant": true
    },
    {
      "inputs": [
        {
          "internalType": "uint256",
          "name": "_index",
          "type": "uint256"
        }
      ],
      "name": "tokenByIndex",
      "outputs": [
        {
          "internalType": "uint256",
          "name": "",
          "type": "uint256"
        }
      ],
      "stateMutability": "view",
      "type": "function",
      "constant": true
    },
    {
      "inputs": [
        {
          "internalType": "address",
          "name": "_owner",
          "type": "address"
        },
        {
          "internalType": "uint256",
          "name": "_index",
          "type": "uint256"
        }
      ],
      "name": "tokenOfOwnerByIndex",
      "outputs": [
        {
          "internalType": "uint256",
          "name": "",
          "type": "uint256"
        }
      ],
      "stateMutability": "view",
      "type": "function",
      "constant": true
    },
    {
      "inputs": [],
      "name": "totalSupply",
      "outputs": [
        {
          "internalType": "uint256",
          "name": "",
          "type": "uint256"
        }
      ],
      "stateMutability": "view",
      "type": "function",
      "constant": true
    },
    {
      "inputs": [
        {
          "internalType": "string",
          "name": "_kryptoBird",
          "type": "string"
        }
      ],
      "name": "mint",
      "outputs": [],
      "stateMutability": "nonpayable",
      "type": "function"
    }
  ],
  "bytecode": "0x608060405234801561001057600080fd5b50604080518082018252600a81527f4b727970746f426972640000000000000000000000000000000000000000000060208083019182528351808501909452600684527f4b424952445a00000000000000000000000000000000000000000000000000009084015281519192918391839161008d916000916100ab565b5080516100a19060019060208401906100ab565b5050505050610198565b8280546100b790610144565b90600052602060002090601f0160209004810192826100d9576000855561011f565b82601f106100f257805160ff191683800117855561011f565b8280016001018555821561011f579182015b8281111561011f578251825591602001919060010190610104565b5061012b92915061012f565b5090565b5b8082111561012b5760008155600101610130565b60028104600182168061015857607f821691505b60208210811415610192577f4e487b7100000000000000000000000000000000000000000000000000000000600052602260045260246000fd5b50919050565b6109f9806101a76000396000f3fe608060405234801561001057600080fd5b50600436106100b0576000357c0100000000000000000000000000000000000000000000000000000000900480636352211e116100835780636352211e1461010f57806370a082311461013a57806393ab6e561461014d57806395d89b4114610160578063d85d3d271461016857600080fd5b806306fdde03146100b557806318160ddd146100d35780632f745c59146100e55780634f6ccce7146100fb575b600080fd5b6100bd61017d565b6040516100ca9190610761565b60405180910390f35b6004545b6040519081526020016100ca565b6100d76100f33660046107b0565b600092915050565b6100d76101093660046107da565b50600090565b61012261011d3660046107da565b61020f565b604051600160a060020a0390911681526020016100ca565b6100d76101483660046107f3565b610282565b6100bd61015b3660046107da565b6102f9565b6100bd6103a5565b61017b610176366004610844565b6103b4565b005b60606000805461018c906108f5565b80601f01602080910402602001604051908101604052809291908181526020018280546101b8906108f5565b80156102055780601f106101da57610100808354040283529160200191610205565b820191906000526020600020905b8154815290600101906020018083116101e857829003601f168201915b5050505050905090565b600081815260026020526040812054600160a060020a03168061027c5760405160e560020a62461bcd02815260206004820152601d60248201527f6f776e657220616464726573732073686f756c64206e6f74206265203000000060448201526064015b60405180910390fd5b92915050565b6000600160a060020a0382166102dd5760405160e560020a62461bcd02815260206004820152601e60248201527f5f6f776e657220616464726573732073686f756c64206e6f74206265203000006044820152606401610273565b50600160a060020a031660009081526003602052604090205490565b6008818154811061030957600080fd5b906000526020600020016000915090508054610324906108f5565b80601f0160208091040260200160405190810160405280929190818152602001828054610350906108f5565b801561039d5780601f106103725761010080835404028352916020019161039d565b820191906000526020600020905b81548152906001019060200180831161038057829003601f168201915b505050505081565b60606001805461018c906108f5565b6009816040516103c49190610949565b9081526040519081900360200190205460ff161561044d5760405160e560020a62461bcd02815260206004820152602160248201527f4572726f723a205f6b727970746f4269726420616c726561647920657869737460448201527f73000000000000000000000000000000000000000000000000000000000000006064820152608401610273565b600880546001810182556000919091528151610490917ff3f7a9fe364faab93b216da50a3214154f22a0a2b415b23a84c8169e8b636ee301906020840190610698565b506008546000906104a390600190610994565b90506104af33826104b3565b5050565b6104bd82826104f6565b6104af81600480546001810182556000919091527f8a35acfbc15ff81a39ae7d344fd709f28e8600b4aa8c65c6b64bfe7fe36bd19b0155565b600160a060020a0382166105755760405160e560020a62461bcd02815260206004820152602160248201527f4552433732313a206d696e74696e6720746f2061207a65726f2061646472657360448201527f73000000000000000000000000000000000000000000000000000000000000006064820152608401610273565b600081815260026020526040902054600160a060020a0316156106035760405160e560020a62461bcd02815260206004820152602560248201527f4552433732313a20746f6b656e20616c7265616479206d696e7465642028657860448201527f69737473290000000000000000000000000000000000000000000000000000006064820152608401610273565b6000818152600260209081526040808320805473ffffffffffffffffffffffffffffffffffffffff1916600160a060020a0387169081179091558352600390915281208054600192906106579084906109ab565b90915550506040518190600160a060020a038416906000907fddf252ad1be2c89b69c2b068fc378daa952ba7f163c4a11628f55a4df523b3ef908290a45050565b8280546106a4906108f5565b90600052602060002090601f0160209004810192826106c6576000855561070c565b82601f106106df57805160ff191683800117855561070c565b8280016001018555821561070c579182015b8281111561070c5782518255916020019190600101906106f1565b5061071892915061071c565b5090565b5b80821115610718576000815560010161071d565b60005b8381101561074c578181015183820152602001610734565b8381111561075b576000848401525b50505050565b6020815260008251806020840152610780816040850160208701610731565b601f01601f19169190910160400192915050565b8035600160a060020a03811681146107ab57600080fd5b919050565b600080604083850312156107c357600080fd5b6107cc83610794565b946020939093013593505050565b6000602082840312156107ec57600080fd5b5035919050565b60006020828403121561080557600080fd5b61080e82610794565b9392505050565b7f4e487b7100000000000000000000000000000000000000000000000000000000600052604160045260246000fd5b60006020828403121561085657600080fd5b813567ffffffffffffffff8082111561086e57600080fd5b818401915084601f83011261088257600080fd5b81358181111561089457610894610815565b604051601f8201601f19908116603f011681019083821181831017156108bc576108bc610815565b816040528281528760208487010111156108d557600080fd5b826020860160208301376000928101602001929092525095945050505050565b60028104600182168061090957607f821691505b60208210811415610943577f4e487b7100000000000000000000000000000000000000000000000000000000600052602260045260246000fd5b50919050565b6000825161095b818460208701610731565b9190910192915050565b7f4e487b7100000000000000000000000000000000000000000000000000000000600052601160045260246000fd5b6000828210156109a6576109a6610965565b500390565b600082198211156109be576109be610965565b50019056fea2646970667358221220ab5be28ab9cc1f7ba53674efb3666cbc7854f4de26ee38b86eedb40dd6c7b86564736f6c634300080b0033",
  "immutableReferences": {},
  "source": "// SPDX-License-Identifier: MIT\r\npragma solidity ^0.8.11;\r\n\r\nimport './ERC721Connector.sol';\r\n\r\n// inherit all contracts from ERC721Connector\r\ncontract KryptoBird is ERC721Connector {\r\n\r\n    // array to store our nfts\r\n    string[] public kryptoBirdz;\r\n\r\n    // check if the tokenId exists\r\n    // save the imgs in a mapping structure\r\n    mapping(string => bool) _kryptoBirdzExists;\r\n\r\n    function mint(string memory _kryptoBird) public {\r\n        // check if the _kryptoBird already exists / has been minted\r\n        require(!_kryptoBirdzExists[_kryptoBird], \"Error: _kryptoBird already exists\");\r\n        // uint256\t_id = kryptoBirdz.push(_kryptoBird); deprecated\r\n        kryptoBirdz.push(_kryptoBird);\r\n        uint _id = kryptoBirdz.length - 1;\r\n\r\n        // use the function from ERC721\r\n        _mint(msg.sender, _id);\r\n    }\r\n   \r\n    constructor() ERC721Connector('KryptoBird','KBIRDZ') {\r\n       \r\n    }\r\n}\r\n",
  "sourcePath": "F:\\Crypto Courses\\The Complete NFT Web Development Course - Zero To Expert\\Project NFT\\nft-marketplace-starter-kit\\src\\contracts\\KryptoBirdz.sol",
  "compiler": {
    "name": "solc",
    "version": "0.8.11+commit.d7f03943.Emscripten.clang"
  },
  "schemaVersion": "3.4.5",
  "updatedAt": "2022-02-27T06:57:49.485Z",
  "networkType": "ethereum",
  "devdoc": {
    "kind": "dev",
    "methods": {
      "balanceOf(address)": {
        "details": "NFTs assigned to the zero address are considered invalid, and this  function throws for queries about the zero address.",
        "params": {
          "_owner": "An address for whom to query the balance"
        },
        "returns": {
          "_0": "The number of NFTs owned by `_owner`, possibly zero"
        }
      },
      "ownerOf(uint256)": {
        "details": "NFTs assigned to zero address are considered invalid, and queries  about them do throw.",
        "params": {
          "_tokenId": "The identifier for an NFT"
        },
        "returns": {
          "_0": "The address of the owner of the NFT"
        }
      },
      "tokenByIndex(uint256)": {
        "details": "Throws if `_index` >= `totalSupply()`.",
        "params": {
          "_index": "A counter less than `totalSupply()`"
        },
        "returns": {
          "_0": "The token identifier for the `_index`th NFT,  (sort order not specified)"
        }
      },
      "tokenOfOwnerByIndex(address,uint256)": {
        "details": "Throws if `_index` >= `balanceOf(_owner)` or if  `_owner` is the zero address, representing invalid NFTs.",
        "params": {
          "_index": "A counter less than `balanceOf(_owner)`",
          "_owner": "An address where we are interested in NFTs owned by them"
        },
        "returns": {
          "_0": "The token identifier for the `_index`th NFT assigned to `_owner`,   (sort order not specified)"
        }
      },
      "totalSupply()": {
        "returns": {
          "_0": "A count of valid NFTs tracked by this contract, where each one of  them has an assigned and queryable owner not equal to the zero address"
        }
      }
    },
    "version": 1
  },
  "userdoc": {
    "kind": "user",
    "methods": {
      "balanceOf(address)": {
        "notice": "Count all NFTs assigned to an owner"
      },
      "ownerOf(uint256)": {
        "notice": "Find the owner of an NFT"
      },
      "tokenByIndex(uint256)": {
        "notice": "Enumerate valid NFTs"
      },
      "tokenOfOwnerByIndex(address,uint256)": {
        "notice": "Enumerate NFTs assigned to an owner"
      },
      "totalSupply()": {
        "notice": "Count NFTs tracked by this contract"
      }
    },
    "version": 1
  }
}