{
  "contractName": "KryptoBird",
  "abi": [
    {
      "inputs": [],
      "stateMutability": "nonpayable",
      "type": "constructor"
    },
    {
      "anonymous": false,
      "inputs": [
        {
          "indexed": true,
          "internalType": "address",
          "name": "from",
          "type": "address"
        },
        {
          "indexed": true,
          "internalType": "address",
          "name": "to",
          "type": "address"
        },
        {
          "indexed": true,
          "internalType": "uint256",
          "name": "tokenId",
          "type": "uint256"
        }
      ],
      "name": "Transfer",
      "type": "event"
    },
    {
      "inputs": [
        {
          "internalType": "address",
          "name": "_owner",
          "type": "address"
        }
      ],
      "name": "balanceOf",
      "outputs": [
        {
          "internalType": "uint256",
          "name": "",
          "type": "uint256"
        }
      ],
      "stateMutability": "view",
      "type": "function",
      "constant": true
    },
    {
      "inputs": [
        {
          "internalType": "uint256",
          "name": "",
          "type": "uint256"
        }
      ],
      "name": "kryptoBirdz",
      "outputs": [
        {
          "internalType": "string",
          "name": "",
          "type": "string"
        }
      ],
      "stateMutability": "view",
      "type": "function",
      "constant": true
    },
    {
      "inputs": [],
      "name": "name",
      "outputs": [
        {
          "internalType": "string",
          "name": "",
          "type": "string"
        }
      ],
      "stateMutability": "view",
      "type": "function",
      "constant": true
    },
    {
      "inputs": [
        {
          "internalType": "uint256",
          "name": "_tokenId",
          "type": "uint256"
        }
      ],
      "name": "ownerOf",
      "outputs": [
        {
          "internalType": "address",
          "name": "",
          "type": "address"
        }
      ],
      "stateMutability": "view",
      "type": "function",
      "constant": true
    },
    {
      "inputs": [],
      "name": "symbol",
      "outputs": [
        {
          "internalType": "string",
          "name": "",
          "type": "string"
        }
      ],
      "stateMutability": "view",
      "type": "function",
      "constant": true
    },
    {
      "inputs": [
        {
          "internalType": "uint256",
          "name": "_index",
          "type": "uint256"
        }
      ],
      "name": "tokenByIndex",
      "outputs": [
        {
          "internalType": "uint256",
          "name": "",
          "type": "uint256"
        }
      ],
      "stateMutability": "view",
      "type": "function",
      "constant": true
    },
    {
      "inputs": [
        {
          "internalType": "address",
          "name": "_owner",
          "type": "address"
        },
        {
          "internalType": "uint256",
          "name": "_index",
          "type": "uint256"
        }
      ],
      "name": "tokenOfOwnerByIndex",
      "outputs": [
        {
          "internalType": "uint256",
          "name": "",
          "type": "uint256"
        }
      ],
      "stateMutability": "view",
      "type": "function",
      "constant": true
    },
    {
      "inputs": [],
      "name": "totalSupply",
      "outputs": [
        {
          "internalType": "uint256",
          "name": "",
          "type": "uint256"
        }
      ],
      "stateMutability": "view",
      "type": "function",
      "constant": true
    },
    {
      "inputs": [
        {
          "internalType": "string",
          "name": "_kryptoBird",
          "type": "string"
        }
      ],
      "name": "mint",
      "outputs": [],
      "stateMutability": "nonpayable",
      "type": "function"
    }
  ],
  "bytecode": "0x608060405234801561001057600080fd5b50604080518082018252600a81527f4b727970746f426972640000000000000000000000000000000000000000000060208083019182528351808501909452600684527f4b424952445a00000000000000000000000000000000000000000000000000009084015281519192918391839161008d916000916100ab565b5080516100a19060019060208401906100ab565b5050505050610198565b8280546100b790610144565b90600052602060002090601f0160209004810192826100d9576000855561011f565b82601f106100f257805160ff191683800117855561011f565b8280016001018555821561011f579182015b8281111561011f578251825591602001919060010190610104565b5061012b92915061012f565b5090565b5b8082111561012b5760008155600101610130565b60028104600182168061015857607f821691505b60208210811415610192577f4e487b7100000000000000000000000000000000000000000000000000000000600052602260045260246000fd5b50919050565b610b34806101a76000396000f3fe608060405234801561001057600080fd5b50600436106100b0576000357c0100000000000000000000000000000000000000000000000000000000900480636352211e116100835780636352211e1461010b57806370a082311461013657806393ab6e561461014957806395d89b411461015c578063d85d3d271461016457600080fd5b806306fdde03146100b557806318160ddd146100d35780632f745c59146100e55780634f6ccce7146100f8575b600080fd5b6100bd610179565b6040516100ca91906108c5565b60405180910390f35b6004545b6040519081526020016100ca565b6100d76100f3366004610914565b61020b565b6100d761010636600461093e565b6102aa565b61011e61011936600461093e565b61032c565b604051600160a060020a0390911681526020016100ca565b6100d7610144366004610957565b61039a565b6100bd61015736600461093e565b610411565b6100bd6104bd565b610177610172366004610992565b6104cc565b005b60606000805461018890610a43565b80601f01602080910402602001604051908101604052809291908181526020018280546101b490610a43565b80156102015780601f106101d657610100808354040283529160200191610201565b820191906000526020600020905b8154815290600101906020018083116101e457829003601f168201915b5050505050905090565b60006102168361039a565b82111561026d5760405160e560020a62461bcd02815260206004820152601d60248201527f6f776e657220696e646578206973206f7574206f6620626f756e64732100000060448201526064015b60405180910390fd5b600160a060020a038316600090815260066020526040902080548390811061029757610297610a81565b9060005260206000200154905092915050565b60006102b560045490565b8211156103075760405160e560020a62461bcd02815260206004820152601e60248201527f676c6f62616c20696e646578206973206f7574206f6620626f756e64732100006044820152606401610264565b6004828154811061031a5761031a610a81565b90600052602060002001549050919050565b600081815260026020526040812054600160a060020a0316806103945760405160e560020a62461bcd02815260206004820152601d60248201527f6f776e657220616464726573732073686f756c64206e6f7420626520300000006044820152606401610264565b92915050565b6000600160a060020a0382166103f55760405160e560020a62461bcd02815260206004820152601e60248201527f5f6f776e657220616464726573732073686f756c64206e6f74206265203000006044820152606401610264565b50600160a060020a031660009081526003602052604090205490565b6008818154811061042157600080fd5b90600052602060002001600091509050805461043c90610a43565b80601f016020809104026020016040519081016040528092919081815260200182805461046890610a43565b80156104b55780601f1061048a576101008083540402835291602001916104b5565b820191906000526020600020905b81548152906001019060200180831161049857829003601f168201915b505050505081565b60606001805461018890610a43565b6009816040516104dc9190610a9a565b9081526040519081900360200190205460ff16156105655760405160e560020a62461bcd02815260206004820152602160248201527f4572726f723a205f6b727970746f4269726420616c726561647920657869737460448201527f73000000000000000000000000000000000000000000000000000000000000006064820152608401610264565b6008805460018101825560009190915281516105a8917ff3f7a9fe364faab93b216da50a3214154f22a0a2b415b23a84c8169e8b636ee3019060208401906107fc565b506008546000906105bb90600190610acf565b90506105c733826105cb565b5050565b6105d5828261065a565b61061d81600480546000838152600560205260408120829055600182018355919091527f8a35acfbc15ff81a39ae7d344fd709f28e8600b4aa8c65c6b64bfe7fe36bd19b0155565b600160a060020a03919091166000908152600660209081526040808320805460018101825581855283852001859055549383526007909152902055565b600160a060020a0382166106d95760405160e560020a62461bcd02815260206004820152602160248201527f4552433732313a206d696e74696e6720746f2061207a65726f2061646472657360448201527f73000000000000000000000000000000000000000000000000000000000000006064820152608401610264565b600081815260026020526040902054600160a060020a0316156107675760405160e560020a62461bcd02815260206004820152602560248201527f4552433732313a20746f6b656e20616c7265616479206d696e7465642028657860448201527f69737473290000000000000000000000000000000000000000000000000000006064820152608401610264565b6000818152600260209081526040808320805473ffffffffffffffffffffffffffffffffffffffff1916600160a060020a0387169081179091558352600390915281208054600192906107bb908490610ae6565b90915550506040518190600160a060020a038416906000907fddf252ad1be2c89b69c2b068fc378daa952ba7f163c4a11628f55a4df523b3ef908290a45050565b82805461080890610a43565b90600052602060002090601f01602090048101928261082a5760008555610870565b82601f1061084357805160ff1916838001178555610870565b82800160010185558215610870579182015b82811115610870578251825591602001919060010190610855565b5061087c929150610880565b5090565b5b8082111561087c5760008155600101610881565b60005b838110156108b0578181015183820152602001610898565b838111156108bf576000848401525b50505050565b60208152600082518060208401526108e4816040850160208701610895565b601f01601f19169190910160400192915050565b8035600160a060020a038116811461090f57600080fd5b919050565b6000806040838503121561092757600080fd5b610930836108f8565b946020939093013593505050565b60006020828403121561095057600080fd5b5035919050565b60006020828403121561096957600080fd5b610972826108f8565b9392505050565b60e060020a634e487b7102600052604160045260246000fd5b6000602082840312156109a457600080fd5b813567ffffffffffffffff808211156109bc57600080fd5b818401915084601f8301126109d057600080fd5b8135818111156109e2576109e2610979565b604051601f8201601f19908116603f01168101908382118183101715610a0a57610a0a610979565b81604052828152876020848701011115610a2357600080fd5b826020860160208301376000928101602001929092525095945050505050565b600281046001821680610a5757607f821691505b60208210811415610a7b5760e060020a634e487b7102600052602260045260246000fd5b50919050565b60e060020a634e487b7102600052603260045260246000fd5b60008251610aac818460208701610895565b9190910192915050565b60e060020a634e487b7102600052601160045260246000fd5b600082821015610ae157610ae1610ab6565b500390565b60008219821115610af957610af9610ab6565b50019056fea264697066735822122008f1156d607e5cfe3ee874edb2e69451836c8fd11d9e0002c1b086237745942564736f6c634300080b0033",
  "immutableReferences": {},
  "source": "// SPDX-License-Identifier: MIT\r\npragma solidity ^0.8.11;\r\n\r\nimport './ERC721Connector.sol';\r\n\r\n// inherit all contracts from ERC721Connector\r\ncontract KryptoBird is ERC721Connector {\r\n\r\n    // array to store our nfts\r\n    string[] public kryptoBirdz;\r\n\r\n    // check if the tokenId exists\r\n    // save the imgs in a mapping structure\r\n    mapping(string => bool) _kryptoBirdzExists;\r\n\r\n    function mint(string memory _kryptoBird) public {\r\n        // check if the _kryptoBird already exists / has been minted\r\n        require(!_kryptoBirdzExists[_kryptoBird], \"Error: _kryptoBird already exists\");\r\n        // uint256\t_id = kryptoBirdz.push(_kryptoBird); deprecated\r\n        kryptoBirdz.push(_kryptoBird);\r\n        uint _id = kryptoBirdz.length - 1;\r\n\r\n        // use the function from ERC721\r\n        _mint(msg.sender, _id);\r\n    }\r\n   \r\n    constructor() ERC721Connector('KryptoBird','KBIRDZ') {\r\n       \r\n    }\r\n}\r\n",
  "sourcePath": "F:\\Crypto Courses\\The Complete NFT Web Development Course - Zero To Expert\\Project NFT\\nft-marketplace-starter-kit\\src\\contracts\\KryptoBirdz.sol",
  "compiler": {
    "name": "solc",
    "version": "0.8.11+commit.d7f03943.Emscripten.clang"
  },
  "schemaVersion": "3.4.5",
  "updatedAt": "2022-02-28T18:07:47.514Z",
  "networkType": "ethereum",
  "devdoc": {
    "kind": "dev",
    "methods": {
      "balanceOf(address)": {
        "details": "NFTs assigned to the zero address are considered invalid, and this  function throws for queries about the zero address.",
        "params": {
          "_owner": "An address for whom to query the balance"
        },
        "returns": {
          "_0": "The number of NFTs owned by `_owner`, possibly zero"
        }
      },
      "ownerOf(uint256)": {
        "details": "NFTs assigned to zero address are considered invalid, and queries  about them do throw.",
        "params": {
          "_tokenId": "The identifier for an NFT"
        },
        "returns": {
          "_0": "The address of the owner of the NFT"
        }
      },
      "tokenByIndex(uint256)": {
        "details": "Throws if `_index` >= `totalSupply()`.",
        "params": {
          "_index": "A counter less than `totalSupply()`"
        },
        "returns": {
          "_0": "The token identifier for the `_index`th NFT,  (sort order not specified)"
        }
      },
      "tokenOfOwnerByIndex(address,uint256)": {
        "details": "Throws if `_index` >= `balanceOf(_owner)` or if  `_owner` is the zero address, representing invalid NFTs.",
        "params": {
          "_index": "A counter less than `balanceOf(_owner)`",
          "_owner": "An address where we are interested in NFTs owned by them"
        },
        "returns": {
          "_0": "The token identifier for the `_index`th NFT assigned to `_owner`,   (sort order not specified)"
        }
      },
      "totalSupply()": {
        "returns": {
          "_0": "A count of valid NFTs tracked by this contract, where each one of  them has an assigned and queryable owner not equal to the zero address"
        }
      }
    },
    "version": 1
  },
  "userdoc": {
    "kind": "user",
    "methods": {
      "balanceOf(address)": {
        "notice": "Count all NFTs assigned to an owner"
      },
      "ownerOf(uint256)": {
        "notice": "Find the owner of an NFT"
      },
      "tokenByIndex(uint256)": {
        "notice": "Enumerate valid NFTs"
      },
      "tokenOfOwnerByIndex(address,uint256)": {
        "notice": "Enumerate NFTs assigned to an owner"
      },
      "totalSupply()": {
        "notice": "Count NFTs tracked by this contract"
      }
    },
    "version": 1
  }
}