{
  "contractName": "Kryptobird",
  "abi": [
    {
      "inputs": [],
      "stateMutability": "nonpayable",
      "type": "constructor"
    },
    {
      "inputs": [],
      "name": "name",
      "outputs": [
        {
          "internalType": "string",
          "name": "",
          "type": "string"
        }
      ],
      "stateMutability": "view",
      "type": "function",
      "constant": true
    },
    {
      "inputs": [],
      "name": "symbol",
      "outputs": [
        {
          "internalType": "string",
          "name": "",
          "type": "string"
        }
      ],
      "stateMutability": "view",
      "type": "function",
      "constant": true
    }
  ],
  "bytecode": "0x608060405234801561001057600080fd5b50604080518082018252600a81527f4b727970746f426972640000000000000000000000000000000000000000000060208083019182528351808501909452600684527f4b424952445a00000000000000000000000000000000000000000000000000009084015281519192918391839161008d916000916100ab565b5080516100a19060019060208401906100ab565b5050505050610198565b8280546100b790610144565b90600052602060002090601f0160209004810192826100d9576000855561011f565b82601f106100f257805160ff191683800117855561011f565b8280016001018555821561011f579182015b8281111561011f578251825591602001919060010190610104565b5061012b92915061012f565b5090565b5b8082111561012b5760008155600101610130565b60028104600182168061015857607f821691505b60208210811415610192577f4e487b7100000000000000000000000000000000000000000000000000000000600052602260045260246000fd5b50919050565b6101fd806101a76000396000f3fe608060405234801561001057600080fd5b5060043610610052577c0100000000000000000000000000000000000000000000000000000000600035046306fdde03811461005757806395d89b4114610075575b600080fd5b61005f61007d565b60405161006c919061011e565b60405180910390f35b61005f61010f565b60606000805461008c90610173565b80601f01602080910402602001604051908101604052809291908181526020018280546100b890610173565b80156101055780601f106100da57610100808354040283529160200191610105565b820191906000526020600020905b8154815290600101906020018083116100e857829003601f168201915b5050505050905090565b60606001805461008c90610173565b600060208083528351808285015260005b8181101561014b5785810183015185820160400152820161012f565b8181111561015d576000604083870101525b50601f01601f1916929092016040019392505050565b60028104600182168061018757607f821691505b602082108114156101c1577f4e487b7100000000000000000000000000000000000000000000000000000000600052602260045260246000fd5b5091905056fea2646970667358221220c8992ba519ffb80c87821e127f5d5a180d6a38c2e686afde029ad333ac413bc164736f6c634300080b0033",
  "immutableReferences": {},
  "source": "// SPDX-License-Identifier: MIT\r\npragma solidity ^0.8.11;\r\n\r\nimport './ERC721Connector.sol';\r\n\r\n// inherit all in ERC721Connector\r\ncontract Kryptobird is ERC721Connector {\r\n\r\n    // Inherit the name and symbol from ERC721Connector\r\n    // so that the name is KryptoBird, and symbol is KBIRDZ\r\n\r\n    constructor() ERC721Connector('KryptoBird','KBIRDZ') {\r\n       \r\n    }\r\n}\r\n",
  "sourcePath": "F:\\Crypto Courses\\The Complete NFT Web Development Course - Zero To Expert\\Project NFT\\nft-marketplace-starter-kit\\src\\contracts\\KryptoBirdz.sol",
  "compiler": {
    "name": "solc",
    "version": "0.8.11+commit.d7f03943.Emscripten.clang"
  },
  "schemaVersion": "3.4.5",
  "updatedAt": "2022-02-21T18:24:39.027Z",
  "networkType": "ethereum",
  "devdoc": {
    "kind": "dev",
    "methods": {},
    "version": 1
  },
  "userdoc": {
    "kind": "user",
    "methods": {},
    "version": 1
  }
}